{
  "contractName": "DAO",
  "abi": [
    {
      "inputs": [
        {
          "internalType": "string",
          "name": "_name",
          "type": "string"
        },
        {
          "internalType": "address",
          "name": "_token",
          "type": "address"
        },
        {
          "internalType": "address",
          "name": "_voting",
          "type": "address"
        },
        {
          "internalType": "address",
          "name": "_finance",
          "type": "address"
        },
        {
          "internalType": "address",
          "name": "_fundraising",
          "type": "address"
        },
        {
          "internalType": "address",
          "name": "_roadmap",
          "type": "address"
        }
      ],
      "stateMutability": "nonpayable",
      "type": "constructor"
    },
    {
      "inputs": [],
      "name": "getname",
      "outputs": [
        {
          "internalType": "string",
          "name": "",
          "type": "string"
        }
      ],
      "stateMutability": "view",
      "type": "function"
    },
    {
      "inputs": [],
      "name": "gettoken",
      "outputs": [
        {
          "internalType": "address",
          "name": "",
          "type": "address"
        }
      ],
      "stateMutability": "view",
      "type": "function"
    },
    {
      "inputs": [],
      "name": "getvoting",
      "outputs": [
        {
          "internalType": "address",
          "name": "",
          "type": "address"
        }
      ],
      "stateMutability": "view",
      "type": "function"
    },
    {
      "inputs": [],
      "name": "getfinance",
      "outputs": [
        {
          "internalType": "address",
          "name": "",
          "type": "address"
        }
      ],
      "stateMutability": "view",
      "type": "function"
    },
    {
      "inputs": [],
      "name": "getfundraising",
      "outputs": [
        {
          "internalType": "address",
          "name": "",
          "type": "address"
        }
      ],
      "stateMutability": "view",
      "type": "function"
    },
    {
      "inputs": [],
      "name": "getroadmap",
      "outputs": [
        {
          "internalType": "address",
          "name": "",
          "type": "address"
        }
      ],
      "stateMutability": "view",
      "type": "function"
    }
  ],
  "bytecode": "0x608060405234801561001057600080fd5b5060405161055a38038061055a83398101604081905261002f9161018a565b85516100429060009060208901906100a6565b5060018054600160a060020a0319908116600160a060020a0397881617909155600280548216958716959095179094556003805485169386169390931790925560048054841691851691909117905560058054909216921691909117905550610302565b8280546100b2906102ae565b90600052602060002090601f0160209004810192826100d4576000855561011a565b82601f106100ed57805160ff191683800117855561011a565b8280016001018555821561011a579182015b8281111561011a5782518255916020019190600101906100ff565b5061012692915061012a565b5090565b5b80821115610126576000815560010161012b565b7f4e487b7100000000000000000000000000000000000000000000000000000000600052604160045260246000fd5b8051600160a060020a038116811461018557600080fd5b919050565b60008060008060008060c087890312156101a357600080fd5b865167ffffffffffffffff808211156101bb57600080fd5b818901915089601f8301126101cf57600080fd5b8151818111156101e1576101e161013f565b604051601f8201601f19908116603f011681019083821181831017156102095761020961013f565b81604052828152602093508c8484870101111561022557600080fd5b600091505b82821015610247578482018401518183018501529083019061022a565b828211156102585760008484830101525b995061026891505089820161016e565b965050506102786040880161016e565b93506102866060880161016e565b92506102946080880161016e565b91506102a260a0880161016e565b90509295509295509295565b6002810460018216806102c257607f821691505b602082108114156102fc577f4e487b7100000000000000000000000000000000000000000000000000000000600052602260045260246000fd5b50919050565b610249806103116000396000f3fe608060405234801561001057600080fd5b50600436106100655760e060020a600035046304b2c6c6811461006a57806373e38eca14610094578063a88a236b146100a5578063ba4020f0146100b6578063c6ea59b9146100c7578063e2ab6d97146100dc575b600080fd5b600154600160a060020a03165b604051600160a060020a0390911681526020015b60405180910390f35b600554600160a060020a0316610077565b600454600160a060020a0316610077565b600354600160a060020a0316610077565b6100cf6100ed565b60405161008b919061017f565b600254600160a060020a0316610077565b6060600080546100fc906101d4565b80601f0160208091040260200160405190810160405280929190818152602001828054610128906101d4565b80156101755780601f1061014a57610100808354040283529160200191610175565b820191906000526020600020905b81548152906001019060200180831161015857829003601f168201915b5050505050905090565b600060208083528351808285015260005b818110156101ac57858101830151858201604001528201610190565b818111156101be576000604083870101525b50601f01601f1916929092016040019392505050565b6002810460018216806101e857607f821691505b6020821081141561020d5760e060020a634e487b710260009081526022600452602490fd5b5091905056fea264697066735822122074f9ce442ffcab770d8dd49487b9531220ed83afedabfc0b4e30426fdc41589764736f6c634300080a0033",
  "immutableReferences": {},
  "source": "// SPDX-License-Identifier: MIT\npragma solidity >=0.4.22 <0.9.0;\nimport \"./Token.sol\";\nimport \"./Voting.sol\";\nimport \"./Finance.sol\";\nimport \"./Fundraising.sol\";\nimport \"./Roadmap.sol\";\n\ncontract DAOfactory{\n    event newDAO(string name, address addr, address token, address voting, address finance);\n    DAO[] daos;\n\n    function create_DAO(string memory _name, string memory tok_name, string memory tok_symbol, uint256 tok_amount) public {\n        Token token = new Token(tok_name, tok_symbol);\n        Token t = new Token(\"share\",\"SHARE\");\n        token.mint(msg.sender, tok_amount);\n        Voting voting = new Voting(token);\n        Finance finance = new Finance(voting);\n        Fundraising fundraising = new Fundraising(t);\n        Roadmap roadmap = new Roadmap(finance, voting);\n        DAO dao = new DAO(_name, address(token), address(voting), address(finance), address(fundraising), address(roadmap));\n        daos.push(dao);\n        emit newDAO(_name, address(dao), address(token), address(voting), address(finance));\n    }\n\n    \n    // function search_DAO(string memory _name) public view returns (address) {\n    //     address addr;\n    //     for(uint i=0; i<daos.length; i++){\n    //         if(CompareStr(daos[i].getname(), _name)){\n    //             addr = address(daos[i]);\n    //         }\n    //     }\n    //     return addr;\n    // }\n\n    // function CompareStr(string memory a, string memory b) public pure returns (bool) {\n    // return (keccak256(abi.encodePacked((a))) == keccak256(abi.encodePacked((b))));\n    // }\n}\n\ncontract DAO{\n    string name;\n    address token;\n    address voting;\n    address finance;\n    address fundraising;\n    address roadmap;\n\n    constructor(string memory _name, address _token, address _voting, address _finance, address _fundraising, address _roadmap){\n        name = _name;\n        token = _token;\n        voting = _voting;\n        finance = _finance;\n        fundraising = _fundraising;\n        roadmap = _roadmap;\n    }\n    \n    //get information of the contract\n    function getname() public view returns (string memory) {return name;}\n\n    //get goverance token\n    function gettoken() public view returns (address) {return token;}\n\n    //get voting\n    function getvoting() public view returns (address) {return voting;}\n\n    //get finance\n    function getfinance() public view returns (address) {return finance;}\n\n    //get fundraising\n    function getfundraising()  public view returns (address) {return fundraising;}\n\n    //get roadmap\n    function getroadmap()  public view returns (address) {return roadmap;}\n}",
  "sourcePath": "/Users/shiqianghan/Desktop/CS310 Project DAO/code/truffle/contracts/DAOfactory.sol",
  "compiler": {
    "name": "solc",
    "version": "0.8.10+commit.fc410830.Emscripten.clang"
  },
  "schemaVersion": "3.4.4",
  "updatedAt": "2022-03-13T16:06:05.944Z",
  "devdoc": {
    "kind": "dev",
    "methods": {},
    "version": 1
  },
  "userdoc": {
    "kind": "user",
    "methods": {},
    "version": 1
  }
}