{
  "contractName": "DAOfactory",
  "abi": [
    {
      "anonymous": false,
      "inputs": [
        {
          "indexed": false,
          "internalType": "string",
          "name": "name",
          "type": "string"
        },
        {
          "indexed": false,
          "internalType": "address",
          "name": "addr",
          "type": "address"
        },
        {
          "indexed": false,
          "internalType": "address",
          "name": "token",
          "type": "address"
        },
        {
          "indexed": false,
          "internalType": "address",
          "name": "voting",
          "type": "address"
        },
        {
          "indexed": false,
          "internalType": "address",
          "name": "finance",
          "type": "address"
        }
      ],
      "name": "newDAO",
      "type": "event"
    },
    {
      "inputs": [
        {
          "internalType": "string",
          "name": "_name",
          "type": "string"
        },
        {
          "internalType": "string",
          "name": "tok_name",
          "type": "string"
        },
        {
          "internalType": "string",
          "name": "tok_symbol",
          "type": "string"
        },
        {
          "internalType": "uint256",
          "name": "tok_amount",
          "type": "uint256"
        }
      ],
      "name": "create_DAO",
      "outputs": [],
      "stateMutability": "nonpayable",
      "type": "function"
    }
  ],
  "bytecode": "0x608060405234801561001057600080fd5b50615fc1806100206000396000f3fe608060405234801561001057600080fd5b506004361061002e5760e060020a6000350463afe7f2ad8114610033575b600080fd5b610046610041366004610411565b610048565b005b6000838360405161005890610317565b6100639291906104ed565b604051809103906000f08015801561007f573d6000803e3d6000fd5b509050600060405161009090610317565b6040808252600590820181905260d860020a64736861726502606083015260806020830181905282015260d860020a6453484152450260a082015260c001604051809103906000f0801580156100ea573d6000803e3d6000fd5b5060405160e060020a6340c10f1902815233600482015260248101859052909150600160a060020a038316906340c10f1990604401600060405180830381600087803b15801561013957600080fd5b505af115801561014d573d6000803e3d6000fd5b5050505060008260405161016090610325565b61016a919061051b565b604051809103906000f080158015610186573d6000803e3d6000fd5b50905060008160405161019890610333565b6101a2919061051b565b604051809103906000f0801580156101be573d6000803e3d6000fd5b5090506000836040516101d090610341565b6101da919061051b565b604051809103906000f0801580156101f6573d6000803e3d6000fd5b509050600082846040516102099061034f565b600160a060020a03928316815291166020820152604001604051809103906000f08015801561023c573d6000803e3d6000fd5b50905060008a87868686866040516102539061035d565b6102629695949392919061052f565b604051809103906000f08015801561027e573d6000803e3d6000fd5b50600080546001810182559080527f290decd9548b62a8d60345a988386fc84ba6bc95484008f6362f93160ef3e563018054600160a060020a031916600160a060020a0383161790556040519091507f6bb540579df18ae24f1a8ba7fa095716853a7fdc4202fb67e4052c23fc59d86190610302908d9084908b908a908a9061057c565b60405180910390a15050505050505050505050565b61111780620005c283390190565b610ece80620016d983390190565b611b5b80620025a783390190565b610572806200410283390190565b6113be806200467483390190565b61055a8062005a3283390190565b60e060020a634e487b710260009081526041600452602490fd5b600082601f83011261039657600080fd5b81356001604060020a03808211156103b0576103b061036b565b604051601f8301601f19908116603f011681019082821181831017156103d8576103d861036b565b816040528381528660208588010111156103f157600080fd5b836020870160208301376000602085830101528094505050505092915050565b6000806000806080858703121561042757600080fd5b84356001604060020a038082111561043e57600080fd5b61044a88838901610385565b9550602087013591508082111561046057600080fd5b61046c88838901610385565b9450604087013591508082111561048257600080fd5b5061048f87828801610385565b949793965093946060013593505050565b6000815180845260005b818110156104c6576020818501810151868301820152016104aa565b818111156104d8576000602083870101525b50601f01601f19169290920160200192915050565b60408152600061050060408301856104a0565b828103602084015261051281856104a0565b95945050505050565b600160a060020a0391909116815260200190565b60c08152600061054260c08301896104a0565b600160a060020a0397881660208401529587166040830152509285166060840152908416608083015290921660a090920191909152919050565b60a08152600061058f60a08301886104a0565b600160a060020a039687166020840152948616604083015250918416606083015290921660809092019190915291905056fe60806040523480156200001157600080fd5b5060405162001117380380620011178339810160408190526200003491620001fa565b8151829082906200004d9060039060208501906200006e565b508051620000639060049060208401906200006e565b5050505050620002ba565b8280546200007c9062000264565b90600052602060002090601f016020900481019282620000a05760008555620000eb565b82601f10620000bb57805160ff1916838001178555620000eb565b82800160010185558215620000eb579182015b82811115620000eb578251825591602001919060010190620000ce565b50620000f9929150620000fd565b5090565b5b80821115620000f95760008155600101620000fe565b7f4e487b7100000000000000000000000000000000000000000000000000000000600052604160045260246000fd5b600082601f8301126200015557600080fd5b81516001604060020a038082111562000172576200017262000114565b604051601f8301601f19908116603f011681019082821181831017156200019d576200019d62000114565b81604052838152602092508683858801011115620001ba57600080fd5b600091505b83821015620001de5785820183015181830184015290820190620001bf565b83821115620001f05760008385830101525b9695505050505050565b600080604083850312156200020e57600080fd5b82516001604060020a03808211156200022657600080fd5b620002348683870162000143565b935060208501519150808211156200024b57600080fd5b506200025a8582860162000143565b9150509250929050565b6002810460018216806200027957607f821691505b60208210811415620002b4577f4e487b7100000000000000000000000000000000000000000000000000000000600052602260045260246000fd5b50919050565b610e4d80620002ca6000396000f3fe608060405234801561001057600080fd5b50600436106100c85760e060020a600035046306fdde0381146100cd578063095ea7b3146100eb57806318160ddd1461010e57806323b872dd14610120578063313ce56714610133578063395093511461014257806340c10f191461015557806370a082311461016a57806395d89b411461017d5780639dc29fac146101855780639ff9bc8914610198578063a457c2d7146101ad578063a9059cbb146101c0578063bad6eb85146101d3578063dd62ed3e146101e8575b600080fd5b6100d56101fb565b6040516100e29190610b75565b60405180910390f35b6100fe6100f9366004610be6565b61028d565b60405190151581526020016100e2565b6002545b6040519081526020016100e2565b6100fe61012e366004610c10565b6102a5565b604051601281526020016100e2565b6100fe610150366004610be6565b6102c9565b610168610163366004610be6565b610308565b005b610112610178366004610c4c565b6103bc565b6100d56103d7565b610168610193366004610be6565b6103e6565b6101a06103f4565b6040516100e29190610c6e565b6100fe6101bb366004610be6565b610455565b6100fe6101ce366004610be6565b6104f2565b6101db610500565b6040516100e29190610cbb565b6101126101f6366004610cf3565b6105be565b60606003805461020a90610d26565b80601f016020809104026020016040519081016040528092919081815260200182805461023690610d26565b80156102835780601f1061025857610100808354040283529160200191610283565b820191906000526020600020905b81548152906001019060200180831161026657829003601f168201915b5050505050905090565b60003361029b8185856105e9565b5060019392505050565b6000336102b385828561071a565b6102be858585610797565b506001949350505050565b336000818152600160209081526040808320600160a060020a038716845290915281205490919061029b9082908690610303908790610d79565b6105e9565b6103128282610965565b60005b600554811015610368576005818154811061033257610332610d91565b600091825260209091200154600160a060020a038481169116141561035657505050565b8061036081610dab565b915050610315565b5050600580546001810182556000919091527f036b6384b5eca791c62761152d0c79bb0604c104a5fb6f4eb0703f3154bb3db0018054600160a060020a031916600160a060020a0392909216919091179055565b600160a060020a031660009081526020819052604090205490565b60606004805461020a90610d26565b6103f08282610a35565b5050565b6060600580548060200260200160405190810160405280929190818152602001828054801561028357602002820191906000526020600020905b8154600160a060020a0316815260019091019060200180831161042e575050505050905090565b336000818152600160209081526040808320600160a060020a0387168452909152812054909190838110156104e55760405160e560020a62461bcd02815260206004820152602560248201527f45524332303a2064656372656173656420616c6c6f77616e63652062656c6f77604482015260d860020a64207a65726f0260648201526084015b60405180910390fd5b6102be82868684036105e9565b60003361029b818585610797565b6005546060906000906001604060020a0381111561052057610520610dc6565b604051908082528060200260200182016040528015610549578160200160208202803683370190505b50905060005b6005548110156105b8576105896005828154811061056f5761056f610d91565b600091825260209091200154600160a060020a03166103bc565b82828151811061059b5761059b610d91565b6020908102919091010152806105b081610dab565b91505061054f565b50919050565b600160a060020a03918216600090815260016020908152604080832093909416825291909152205490565b600160a060020a0383166106515760405160e560020a62461bcd028152602060048201526024808201527f45524332303a20617070726f76652066726f6d20746865207a65726f20616464604482015260e060020a63726573730260648201526084016104dc565b600160a060020a0382166106b85760405160e560020a62461bcd02815260206004820152602260248201527f45524332303a20617070726f766520746f20746865207a65726f206164647265604482015260f060020a6173730260648201526084016104dc565b600160a060020a0383811660008181526001602090815260408083209487168084529482529182902085905590518481527f8c5be1e5ebec7d5bd14f71427d1e84f3dd0314c0f7b2291e5b200ac8c7c3b92591015b60405180910390a3505050565b600061072684846105be565b9050600019811461079157818110156107845760405160e560020a62461bcd02815260206004820152601d60248201527f45524332303a20696e73756666696369656e7420616c6c6f77616e636500000060448201526064016104dc565b61079184848484036105e9565b50505050565b600160a060020a0383166108015760405160e560020a62461bcd02815260206004820152602560248201527f45524332303a207472616e736665722066726f6d20746865207a65726f206164604482015260d860020a6464726573730260648201526084016104dc565b600160a060020a0382166108695760405160e560020a62461bcd02815260206004820152602360248201527f45524332303a207472616e7366657220746f20746865207a65726f2061646472604482015260e860020a626573730260648201526084016104dc565b600160a060020a038316600090815260208190526040902054818110156108e75760405160e560020a62461bcd02815260206004820152602660248201527f45524332303a207472616e7366657220616d6f756e7420657863656564732062604482015260d060020a65616c616e63650260648201526084016104dc565b600160a060020a0380851660009081526020819052604080822085850390559185168152908120805484929061091e908490610d79565b9250508190555082600160a060020a031684600160a060020a0316600080516020610df88339815191528460405161095891815260200190565b60405180910390a3610791565b600160a060020a0382166109be5760405160e560020a62461bcd02815260206004820152601f60248201527f45524332303a206d696e7420746f20746865207a65726f20616464726573730060448201526064016104dc565b80600260008282546109d09190610d79565b9091555050600160a060020a038216600090815260208190526040812080548392906109fd908490610d79565b9091555050604051818152600160a060020a03831690600090600080516020610df88339815191529060200160405180910390a35050565b600160a060020a038216610a9b5760405160e560020a62461bcd02815260206004820152602160248201527f45524332303a206275726e2066726f6d20746865207a65726f20616464726573604482015260f860020a60730260648201526084016104dc565b600160a060020a03821660009081526020819052604090205481811015610b155760405160e560020a62461bcd02815260206004820152602260248201527f45524332303a206275726e20616d6f756e7420657863656564732062616c616e604482015260f060020a6163650260648201526084016104dc565b600160a060020a0383166000908152602081905260408120838303905560028054849290610b44908490610de0565b9091555050604051828152600090600160a060020a03851690600080516020610df88339815191529060200161070d565b600060208083528351808285015260005b81811015610ba257858101830151858201604001528201610b86565b81811115610bb4576000604083870101525b50601f01601f1916929092016040019392505050565b8035600160a060020a0381168114610be157600080fd5b919050565b60008060408385031215610bf957600080fd5b610c0283610bca565b946020939093013593505050565b600080600060608486031215610c2557600080fd5b610c2e84610bca565b9250610c3c60208501610bca565b9150604084013590509250925092565b600060208284031215610c5e57600080fd5b610c6782610bca565b9392505050565b6020808252825182820181905260009190848201906040850190845b81811015610caf578351600160a060020a031683529284019291840191600101610c8a565b50909695505050505050565b6020808252825182820181905260009190848201906040850190845b81811015610caf57835183529284019291840191600101610cd7565b60008060408385031215610d0657600080fd5b610d0f83610bca565b9150610d1d60208401610bca565b90509250929050565b600281046001821680610d3a57607f821691505b602082108114156105b85760e060020a634e487b710260009081526022600452602490fd5b60e060020a634e487b710260009081526011600452602490fd5b60008219821115610d8c57610d8c610d5f565b500190565b60e060020a634e487b710260009081526032600452602490fd5b6000600019821415610dbf57610dbf610d5f565b5060010190565b60e060020a634e487b710260009081526041600452602490fd5b600082821015610df257610df2610d5f565b50039056feddf252ad1be2c89b69c2b068fc378daa952ba7f163c4a11628f55a4df523b3efa2646970667358221220de0e0c2921b4f8475a608cf7a42d0846fa176ed86ff2c21d4c948a7435d98a6a64736f6c634300080a0033608060405234801561001057600080fd5b50604051610ece380380610ece83398101604081905261002f91610054565b60008054600160a060020a031916600160a060020a0392909216919091179055610084565b60006020828403121561006657600080fd5b8151600160a060020a038116811461007d57600080fd5b9392505050565b610e3b806100936000396000f3fe608060405234801561001057600080fd5b506004361061009c5760e060020a6000350463100d90e381146100a157806316ada547146100cf57806321a3a8bd146100df578063490882ed146100f257806356b8623c1461010757806369dd0e661461011057806372a500541461012357806389321d5a1461016e578063bc70361114610181578063c724dc4514610194578063d92f63ab146101a7575b600080fd5b6100b46100af3660046109d6565b6101dd565b6040516100c696959493929190610a02565b60405180910390f35b425b6040519081526020016100c6565b6100d16100ed366004610ac2565b610330565b610105610100366004610b7d565b610347565b005b6100d160025481565b6100d161011e366004610bbb565b610527565b610153610131366004610bbb565b6000908152600160205260409020600381015460048201546006909201549092565b604080519384526020840192909252908201526060016100c6565b6100d161017c366004610bbb565b61055b565b6100d161018f366004610bbb565b6105c4565b6101056101a2366004610bd4565b6105e8565b6101cd6101b5366004610bbb565b60009081526001602081905260409091200154421090565b60405190151581526020016100c6565b606060008060008060008060016000898152602001908152602001600020600001805461020990610c00565b80601f016020809104026020016040519081016040528092919081815260200182805461023590610c00565b80156102825780601f1061025757610100808354040283529160200191610282565b820191906000526020600020905b81548152906001019060200180831161026557829003601f168201915b50505060008b815260016020819052604082209081015460029091015494955093925090506102b08b610527565b905060006102bd8c6105c4565b90506000600160008e815260200190815260200160002060070160008f600160a060020a0316600160a060020a0316815260200190815260200160002060009054906101000a900460ff16600281111561031957610319610c3f565b959e949d50929b5090995097509195509350505050565b600061033e858585856107b3565b95945050505050565b80156104455760005460405160e060020a6370a082310281526103db91600160a060020a0316906370a0823190610382908790600401610c59565b602060405180830381865afa15801561039f573d6000803e3d6000fd5b505050506040513d601f19601f820116820180604052508101906103c39190610c6d565b60008481526001602052604090206003015490610912565b60008381526001602081815260408084206003810195909555600160a060020a038816845260079094019052919020805460ff191682179055600080516020610de683398151915290849084905b60405161043893929190610c86565b60405180910390a1505050565b60005460405160e060020a6370a082310281526104d391600160a060020a0316906370a082319061047a908790600401610c59565b602060405180830381865afa158015610497573d6000803e3d6000fd5b505050506040513d601f19601f820116820180604052508101906104bb9190610c6d565b60008481526001602052604090206004015490610912565b60008381526001602090815260408083206004810194909455600160a060020a03871683526007909301905220805460ff19166002908117909155600080516020610de68339815191529084908490610429565b6000818152600160205260408120600581015460039091015461054b906064610cc1565b6105559190610ce0565b92915050565b60008181526001602052604081206002015461057683610527565b1061058357506001919050565b6000828152600160205260409020600201546105a0906064610d06565b6105a9836105c4565b11156105b757506000919050565b506002919050565b919050565b6000818152600160205260408120600581015460049091015461054b906064610cc1565b80156106da576000828152600160205260409020600601546106505760005460405160e060020a6370a0823102815261063991600160a060020a0316906370a0823190610382903390600401610c59565b600083815260016020526040902060030155610681565b60008281526001602081905260409091206003015461066e91610912565b6000838152600160205260409020600301555b6000828152600160208181526040808420338086526007909101909252909220805460ff191682179055600080516020610de6833981519152919084905b6040516106ce93929190610c86565b60405180910390a15050565b60008281526001602052604090206006015461073c5760005460405160e060020a6370a0823102815261072591600160a060020a0316906370a082319061047a903390600401610c59565b60008381526001602052604090206004015561076d565b60008281526001602081905260409091206004015461075a91610912565b6000838152600160205260409020600401555b6000828152600160209081526040808320338085526007909101909252909120805460ff19166002908117909155600080516020610de6833981519152919084906106bf565b60006001600260008282546107c89190610d1d565b91829055506000818152600160209081526040909120885192945092506107f3918391890190610925565b506001810185905560028101849055600060038201819055600480830182905590546040805160e060020a6318160ddd0281529051600160a060020a03909216926318160ddd9282820192602092908290030181865afa15801561085b573d6000803e3d6000fd5b505050506040513d601f19601f8201168201806040525081019061087f9190610c6d565b6005820155600183141561090457600080546040805160e060020a639ff9bc890281529051600160a060020a0390921692639ff9bc89926004808401938290030181865afa1580156108d5573d6000803e3d6000fd5b505050506040513d6000823e601f3d908101601f191682016040526108fd9190810190610d35565b5160058201555b600601919091559392505050565b600061091e8284610d1d565b9392505050565b82805461093190610c00565b90600052602060002090601f0160209004810192826109535760008555610999565b82601f1061096c57805160ff1916838001178555610999565b82800160010185558215610999579182015b8281111561099957825182559160200191906001019061097e565b506109a59291506109a9565b5090565b5b808211156109a557600081556001016109aa565b600160a060020a03811681146109d357600080fd5b50565b600080604083850312156109e957600080fd5b82356109f4816109be565b946020939093013593505050565b60c08152600087518060c084015260005b81811015610a30576020818b0181015160e0868401015201610a13565b81811115610a4257600060e083860101525b5060208301979097525060408101949094526060840192909252608083015260a082015260e0601f909201601f19160101919050565b60e060020a634e487b710260009081526041600452602490fd5b604051601f8201601f191681016001604060020a0381118282101715610aba57610aba610a78565b604052919050565b60008060008060808587031215610ad857600080fd5b84356001604060020a0380821115610aef57600080fd5b818701915087601f830112610b0357600080fd5b8135602082821115610b1757610b17610a78565b610b29601f8301601f19168201610a92565b92508183528981838601011115610b3f57600080fd5b8181850182850137600091830181019190915290989087013597506040870135966060013595509350505050565b803580151581146105bf57600080fd5b600080600060608486031215610b9257600080fd5b8335610b9d816109be565b925060208401359150610bb260408501610b6d565b90509250925092565b600060208284031215610bcd57600080fd5b5035919050565b60008060408385031215610be757600080fd5b82359150610bf760208401610b6d565b90509250929050565b600281046001821680610c1457607f821691505b60208210811415610c395760e060020a634e487b710260009081526022600452602490fd5b50919050565b60e060020a634e487b710260009081526021600452602490fd5b600160a060020a0391909116815260200190565b600060208284031215610c7f57600080fd5b5051919050565b600160a060020a039390931683526020830191909152604082015260600190565b60e060020a634e487b710260009081526011600452602490fd5b6000816000190483118215151615610cdb57610cdb610ca7565b500290565b600082610d015760e060020a634e487b710260009081526012600452602490fd5b500490565b600082821015610d1857610d18610ca7565b500390565b60008219821115610d3057610d30610ca7565b500190565b60006020808385031215610d4857600080fd5b82516001604060020a0380821115610d5f57600080fd5b818501915085601f830112610d7357600080fd5b815181811115610d8557610d85610a78565b8381029150610d95848301610a92565b8181529183018401918481019088841115610daf57600080fd5b938501935b83851015610dd95784519250610dc9836109be565b8282529385019390850190610db4565b9897505050505050505056fea1c1b9cdc2aad9661d1ffcabab0d910074d89a8e159d8858bdaab9cf81164ba6a26469706673582212207c93f36564a0539fbd6f1cd3ba9bb9025a29375619037f79de212e20ea9db4de64736f6c634300080a0033608060405234801561001057600080fd5b50604051611b5b380380611b5b83398101604081905261002f91610054565b60008054600160a060020a031916600160a060020a0392909216919091179055610084565b60006020828403121561006657600080fd5b8151600160a060020a038116811461007d57600080fd5b9392505050565b611ac8806100936000396000f3fe608060405234801561001057600080fd5b50600436106100a75760e060020a60003504631c00dd8e81146100ac578063211a4237146100c357806331a7ca28146100e3578063378f96ee146100f65780634dd85148146101195780635e57966d1461012e5780637aa7b57b146101415780637af3f80d14610154578063b442257114610167578063d16297d11461018a578063f76f950e1461019d578063f87009d2146101b0575b600080fd5b6001545b6040519081526020015b60405180910390f35b6100d66100d13660046114b8565b6101c3565b6040516100ba919061162a565b6100b06100f136600461163d565b6101fe565b61010961010436600461163d565b6103ae565b60405190151581526020016100ba565b61012c610127366004611656565b6104e0565b005b6100d661013c3660046116a7565b6105af565b61010961014f36600461163d565b6107c5565b61010961016236600461163d565b610823565b61017a61017536600461163d565b610955565b6040516100ba94939291906116c2565b61012c6101983660046116fd565b610a42565b6100d66101ab36600461163d565b610be5565b61012c6101be3660046116fd565b610d0a565b6060878787878787876040516020016101e29796959493929190611762565b6040516020818303038152906040529050979650505050505050565b60008060018381548110610214576102146117f4565b6000918252602091829020604080516101008101825260079093029091018054600160a060020a03908116845260018201541693830193909352600283015490820152600382015460608201526004820180549192916080840191906102799061180e565b80601f01602080910402602001604051908101604052809291908181526020018280546102a59061180e565b80156102f25780601f106102c7576101008083540402835291602001916102f2565b820191906000526020600020905b8154815290600101906020018083116102d557829003601f168201915b50505091835250506005820154602082015260069091015460ff808216151560408085019190915261010090920416151560609092019190915260005460a0830151915160e160020a6344990ead028152929350600160a060020a0316916389321d5a916103669160040190815260200190565b602060405180830381865afa158015610383573d6000803e3d6000fd5b505050506040513d601f19601f820116820180604052508101906103a7919061184d565b9392505050565b600080600183815481106103c4576103c46117f4565b6000918252602091829020604080516101008101825260079093029091018054600160a060020a03908116845260018201541693830193909352600283015490820152600382015460608201526004820180549192916080840191906104299061180e565b80601f01602080910402602001604051908101604052809291908181526020018280546104559061180e565b80156104a25780601f10610477576101008083540402835291602001916104a2565b820191906000526020600020905b81548152906001019060200180831161048557829003601f168201915b50505091835250506005820154602082015260069091015460ff8082161515604084015261010090910416151560609091015260e001519392505050565b6000805b6001548110156105305760018181548110610501576105016117f4565b90600052602060002090600702016005015484141561051e578091505b8061052881611880565b9150506104e4565b5060005460405160e060020a63490882ed028152336004820152602481018590528315156044820152600160a060020a039091169063490882ed90606401600060405180830381600087803b15801561058857600080fd5b505af115801561059c573d6000803e3d6000fd5b505050506105a981610feb565b50505050565b60408051808201825260108152608160020a6f181899199a1a9b1b9c1cb0b131b232b3026020820152815160338082526060828101909452600160a060020a038516929160009160208201818036833701905050905060fc60020a60030281600081518110610620576106206117f4565b6020010190600160f860020a031916908160001a90535060fb60020a600f0281600181518110610652576106526117f4565b6020010190600160f860020a031916908160001a90535060005b60148110156107bc578260048561068484600c61189b565b60208110610694576106946117f4565b1a60f860020a02600160f860020a031916908060020a820491505060f860020a900460ff16815181106106c9576106c96117f4565b016020015160f860020a9081900402826106e48360026118b3565b6106ef90600261189b565b815181106106ff576106ff6117f4565b6020010190600160f860020a031916908160001a905350828461072383600c61189b565b60208110610733576107336117f4565b1a60f860020a02600f60f860020a021660f860020a900460ff168151811061075d5761075d6117f4565b016020015160f860020a9081900402826107788360026118b3565b61078390600361189b565b81518110610793576107936117f4565b6020010190600160f860020a031916908160001a905350806107b481611880565b91505061066c565b50949350505050565b6000805b60015481101561081a57600181815481106107e6576107e66117f4565b9060005260206000209060070201600501548314156108085750600192915050565b8061081281611880565b9150506107c9565b50600092915050565b60008060018381548110610839576108396117f4565b6000918252602091829020604080516101008101825260079093029091018054600160a060020a039081168452600182015416938301939093526002830154908201526003820154606082015260048201805491929160808401919061089e9061180e565b80601f01602080910402602001604051908101604052809291908181526020018280546108ca9061180e565b80156109175780601f106108ec57610100808354040283529160200191610917565b820191906000526020600020905b8154815290600101906020018083116108fa57829003601f168201915b50505091835250506005820154602082015260069091015460ff8082161515604084015261010090910416151560609091015260c001519392505050565b600080606060008060018681548110610970576109706117f4565b9060005260206000209060070201905080600201548160010160009054906101000a9004600160a060020a03168260040183600301548180546109b29061180e565b80601f01602080910402602001604051908101604052809291908181526020018280546109de9061180e565b8015610a2b5780601f10610a0057610100808354040283529160200191610a2b565b820191906000526020600020905b815481529060010190602001808311610a0e57829003601f168201915b505050505091509450945094509450509193509193565b600280546001808201835560009283527f405787fa12a823e0f2b7631cc41b3ba8828b3321ca811111fa75cd3aa3bb5ace9091018054600160a060020a031916600160a060020a03888116918217909255604080516101008101825291825291871660208201524291810191909152606081018490526080810185905260a0810183905260c081019190915260e08101919091528490610ae48286308661128c565b6001805480820182556000919091528151600080516020611a3383398151915260079092029182018054600160a060020a0319908116600160a060020a03938416178255602080860151600080516020611a538339815191528601805490931694169390931790556040840151600080516020611a138339815191528401556060840151600080516020611a738339815191528401556080840151805185949293610ba1936000805160206119f383398151915201920190611358565b5060a0820151600582015560c08201516006909101805460e09093015115156101000261ff00199215159290921661ffff1990931692909217179055505050505050565b606081610c0c575050604080518082019091526001815260fc60020a600302602082015290565b8160005b8115610c365780610c2081611880565b9150610c2f9050600a836118d2565b9150610c10565b6000816001604060020a03811115610c5057610c506113f1565b6040519080825280601f01601f191660200182016040528015610c7a576020820181803683370190505b509050815b85156107bc57610c906001826118f8565b90506000610c9f600a886118d2565b610caa90600a6118b3565b610cb490886118f8565b610cbf90603061190f565b905060008160f860020a02905080848481518110610cdf57610cdf6117f4565b6020010190600160f860020a031916908160001a905350610d01600a896118d2565b97505050610c7f565b6000849050600081600160a060020a03166395d89b416040518163ffffffff1660e060020a028152600401600060405180830381865afa158015610d52573d6000803e3d6000fd5b505050506040513d6000823e601f3d908101601f19168201604052610d7a9190810190611934565b90506000610d8784610be5565b90506000610d94876105af565b905060008060009054906101000a9004600160a060020a0316600160a060020a03166321a3a8bd610e3560405180604001604052806009815260200160bd60020a6802a3930b739b332b9102815250868860405180604001604052806004815260200160e560020a630103a37902815250886040518060400160405280600d8152602001609d60020a6c017102932b332b932b731b29d1028152508f6101c3565b610e42426201518061189b565b605060006040518563ffffffff1660e060020a028152600401610e6894939291906119aa565b6020604051808303816000875af1158015610e87573d6000803e3d6000fd5b505050506040513d601f19601f82011682018060405250810190610eab919061184d565b6040805161010081018252600160a060020a03808d1682528b8116602080840191825242948401948552606084018c8152608085018e815260a08601889052600060c08701819052600160e0880181905280548082018255915286516007909102600080516020611a3383398151915281018054928816600160a060020a03199384161781559551600080516020611a5383398151915282018054919098169216919091179095559551600080516020611a1383398151915285015551600080516020611a7383398151915284015593518051959650929485949193610fa3936000805160206119f383398151915201920190611358565b5060a0820151600582015560c08201516006909101805460e09093015115156101000261ff00199215159290921661ffff199093169290921717905550505050505050505050565b60008060018381548110611001576110016117f4565b6000918252602091829020604080516101008101825260079093029091018054600160a060020a03908116845260018201541693830193909352600283015490820152600382015460608201526004820180549192916080840191906110669061180e565b80601f01602080910402602001604051908101604052809291908181526020018280546110929061180e565b80156110df5780601f106110b4576101008083540402835291602001916110df565b820191906000526020600020905b8154815290600101906020018083116110c257829003601f168201915b50505091835250506005820154602082015260069091015460ff8082161515604084015261010090910416151560609091015260c08101519091501580156111a1575060005460a082015160405160e160020a6344990ead028152600160a060020a03909216916389321d5a9161115c9160040190815260200190565b602060405180830381865afa158015611179573d6000803e3d6000fd5b505050506040513d601f19601f8201168201806040525081019061119d919061184d565b6001145b156111fa5760018084815481106111ba576111ba6117f4565b906000526020600020906007020160060160006101000a81548160ff0219169083151502179055506111fa8160000151308360200151846060015161128c565b60c08101511580156103a7575060005460a082015160405160e160020a6344990ead028152600160a060020a03909216916389321d5a916112419160040190815260200190565b602060405180830381865afa15801561125e573d6000803e3d6000fd5b505050506040513d601f19601f82011682018060405250810190611282919061184d565b6001149392505050565b60405160e060020a6340c10f19028152600160a060020a038516906340c10f19906112bd90859085906004016119d9565b600060405180830381600087803b1580156112d757600080fd5b505af11580156112eb573d6000803e3d6000fd5b505060405160e260020a632770a7eb028152600160a060020a0387169250639dc29fac915061132090869085906004016119d9565b600060405180830381600087803b15801561133a57600080fd5b505af115801561134e573d6000803e3d6000fd5b5050505050505050565b8280546113649061180e565b90600052602060002090601f01602090048101928261138657600085556113cc565b82601f1061139f57805160ff19168380011785556113cc565b828001600101855582156113cc579182015b828111156113cc5782518255916020019190600101906113b1565b506113d89291506113dc565b5090565b5b808211156113d857600081556001016113dd565b60e060020a634e487b710260009081526041600452602490fd5b604051601f8201601f191681016001604060020a0381118282101715611433576114336113f1565b604052919050565b60006001604060020a03821115611454576114546113f1565b50601f01601f191660200190565b600082601f83011261147357600080fd5b81356114866114818261143b565b61140b565b81815284602083860101111561149b57600080fd5b816020850160208301376000918101602001919091529392505050565b600080600080600080600060e0888a0312156114d357600080fd5b87356001604060020a03808211156114ea57600080fd5b6114f68b838c01611462565b985060208a013591508082111561150c57600080fd5b6115188b838c01611462565b975060408a013591508082111561152e57600080fd5b61153a8b838c01611462565b965060608a013591508082111561155057600080fd5b61155c8b838c01611462565b955060808a013591508082111561157257600080fd5b61157e8b838c01611462565b945060a08a013591508082111561159457600080fd5b6115a08b838c01611462565b935060c08a01359150808211156115b657600080fd5b506115c38a828b01611462565b91505092959891949750929550565b60005b838110156115ed5781810151838201526020016115d5565b838111156105a95750506000910152565b600081518084526116168160208601602086016115d2565b601f01601f19169290920160200192915050565b6020815260006103a760208301846115fe565b60006020828403121561164f57600080fd5b5035919050565b6000806040838503121561166957600080fd5b823591506020830135801515811461168057600080fd5b809150509250929050565b8035600160a060020a03811681146116a257600080fd5b919050565b6000602082840312156116b957600080fd5b6103a78261168b565b848152600160a060020a03841660208201526080604082018190526000906116ec908301856115fe565b905082606083015295945050505050565b6000806000806080858703121561171357600080fd5b61171c8561168b565b935061172a6020860161168b565b925060408501356001604060020a0381111561174557600080fd5b61175187828801611462565b949793965093946060013593505050565b6000885160206117758285838e016115d2565b8951918401916117888184848e016115d2565b895192019161179a8184848d016115d2565b88519201916117ac8184848c016115d2565b87519201916117be8184848b016115d2565b86519201916117d08184848a016115d2565b85519201916117e281848489016115d2565b919091019a9950505050505050505050565b60e060020a634e487b710260009081526032600452602490fd5b60028104600182168061182257607f821691505b602082108114156118475760e060020a634e487b710260009081526022600452602490fd5b50919050565b60006020828403121561185f57600080fd5b5051919050565b60e060020a634e487b710260009081526011600452602490fd5b600060001982141561189457611894611866565b5060010190565b600082198211156118ae576118ae611866565b500190565b60008160001904831182151516156118cd576118cd611866565b500290565b6000826118f35760e060020a634e487b710260009081526012600452602490fd5b500490565b60008282101561190a5761190a611866565b500390565b600060ff821660ff84168060ff0382111561192c5761192c611866565b019392505050565b60006020828403121561194657600080fd5b81516001604060020a0381111561195c57600080fd5b8201601f8101841361196d57600080fd5b805161197b6114818261143b565b81815285602083850101111561199057600080fd5b6119a18260208301602086016115d2565b95945050505050565b6080815260006119bd60808301876115fe565b6020830195909552506040810192909252606090910152919050565b600160a060020a0392909216825260208201526040019056feb10e2d527612073b26eecdfd717e6a320cf44b4afac2b0732d9fcbe2b7fa0cfab10e2d527612073b26eecdfd717e6a320cf44b4afac2b0732d9fcbe2b7fa0cf8b10e2d527612073b26eecdfd717e6a320cf44b4afac2b0732d9fcbe2b7fa0cf6b10e2d527612073b26eecdfd717e6a320cf44b4afac2b0732d9fcbe2b7fa0cf7b10e2d527612073b26eecdfd717e6a320cf44b4afac2b0732d9fcbe2b7fa0cf9a26469706673582212200eb05c0ebfe43316e4f216d565f4a27a1249b96c4f7eccf2f126b4c8a985021e64736f6c634300080a00336080604052600060015534801561001557600080fd5b5060405161057238038061057283398101604081905261003491610059565b60008054600160a060020a031916600160a060020a0392909216919091179055610089565b60006020828403121561006b57600080fd5b8151600160a060020a038116811461008257600080fd5b9392505050565b6104da806100986000396000f3fe608060405234801561001057600080fd5b506004361061005a5760e060020a60003504631e279a37811461005f5780632f5bae721461008557806373e888fd1461008d5780639b25708c146100a2578063aa8c217c146100da575b600080fd5b61007261006d3660046103e5565b6100e3565b6040519081526020015b60405180910390f35b600254610072565b6100a061009b3660046103e5565b61015b565b005b6100b56100b0366004610415565b6102b0565b60408051600160a060020a03909416845260208401929092529082015260600161007c565b61007260015481565b6000805460405160e060020a6370a08231028152600160a060020a038481166004830152909116906370a0823190602401602060405180830381865afa158015610131573d6000803e3d6000fd5b505050506040513d601f19601f82011682018060405250810190610155919061042e565b92915050565b6101698133306101f4610319565b6101f46001600082825461017d9190610447565b909155505060005460405160e060020a6340c10f19028152600160a060020a03909116906340c10f19906101b990339061c35090600401610471565b600060405180830381600087803b1580156101d357600080fd5b505af11580156101e7573d6000803e3d6000fd5b50506040805160608101825233815242602082019081526101f49282019283526002805460018101825560009190915291517f405787fa12a823e0f2b7631cc41b3ba8828b3321ca811111fa75cd3aa3bb5ace60039093029283018054600160a060020a031916600160a060020a03909216919091179055517f405787fa12a823e0f2b7631cc41b3ba8828b3321ca811111fa75cd3aa3bb5acf82015590517f405787fa12a823e0f2b7631cc41b3ba8828b3321ca811111fa75cd3aa3bb5ad090910155505050565b600080600080600285815481106102c9576102c961048a565b6000918252602091829020604080516060810182526003939093029091018054600160a060020a031680845260018201549484018590526002909101549290910182905297919650945092505050565b60405160e060020a6340c10f19028152600160a060020a038516906340c10f199061034a9085908590600401610471565b600060405180830381600087803b15801561036457600080fd5b505af1158015610378573d6000803e3d6000fd5b505060405160e260020a632770a7eb028152600160a060020a0387169250639dc29fac91506103ad9086908590600401610471565b600060405180830381600087803b1580156103c757600080fd5b505af11580156103db573d6000803e3d6000fd5b5050505050505050565b6000602082840312156103f757600080fd5b8135600160a060020a038116811461040e57600080fd5b9392505050565b60006020828403121561042757600080fd5b5035919050565b60006020828403121561044057600080fd5b5051919050565b6000821982111561046c5760e060020a634e487b710260009081526011600452602490fd5b500190565b600160a060020a03929092168252602082015260400190565b60e060020a634e487b710260009081526032600452602490fdfea26469706673582212205171e1f8c76bdcb00dd9b2b3c423635b93d8d0798df28b3958c11c16d3d19bc064736f6c634300080a0033608060405234801561001057600080fd5b506040516113be3803806113be83398101604081905261002f91610078565b60008054600160a060020a03938416600160a060020a031991821617909155600180549290931691161790556100b2565b600160a060020a038116811461007557600080fd5b50565b6000806040838503121561008b57600080fd5b825161009681610060565b60208401519092506100a781610060565b809150509250929050565b6112fd806100c16000396000f3fe608060405234801561001057600080fd5b50600436106100865760e060020a600035046301402ccb811461008b5780631643a93d146100ba5780631c323c64146100cb578063673d7744146100e0578063712ac34c146100f3578063b5500a6c14610116578063c9d0ba8514610129578063eb04296f146100ba578063ff5864ad1461013c575b600080fd5b61009e610099366004610d35565b61014f565b6040516100b19796959493929190610daa565b60405180910390f35b6002546040519081526020016100b1565b6100de6100d9366004610e09565b6102b4565b005b6100de6100ee366004610d35565b6104d0565b610106610101366004610d35565b610701565b60405190151581526020016100b1565b610106610124366004610e55565b610794565b6100de610137366004610d35565b61086e565b6100de61014a366004610ef2565b610bc6565b606060008060008060008060006002898154811061016f5761016f610f93565b90600052602060002090600502016040518060a001604052908160008201805461019890610fad565b80601f01602080910402602001604051908101604052809291908181526020018280546101c490610fad565b80156102115780601f106101e657610100808354040283529160200191610211565b820191906000526020600020905b8154815290600101906020018083116101f457829003601f168201915b505050918352505060018201546020808301919091526002830154600160a060020a039081166040808501919091526003850154606085015260049485015490911660809093019290925260008d8152929052812054919250908190156102875750506000898152600460205260409020546001905b8251602084015160408501516060860151608090960151929e919d509b5093995097509095509350915050565b60015460405160e060020a63490882ed028152336004820152602481018490528215156044820152600160a060020a039091169063490882ed90606401600060405180830381600087803b15801561030b57600080fd5b505af115801561031f573d6000803e3d6000fd5b5060009250829150505b6002548110156103a95760005b60008281526003602052604090205481101561039657600082815260036020526040902080548691908390811061036f5761036f610f93565b90600052602060002001541415610384578192505b8061038e81611006565b915050610336565b50806103a181611006565b915050610329565b506000600160a060020a0316600282815481106103c8576103c8610f93565b6000918252602090912060046005909202010154600160a060020a0316148015610461575060015460405160e160020a6344990ead02815260048101859052600160a060020a03909116906389321d5a90602401602060405180830381865afa158015610439573d6000803e3d6000fd5b505050506040513d601f19601f8201168201806040525081019061045d9190611021565b6001145b156104cb5760008381526005602052604090205460028054600160a060020a03909216918390811061049557610495610f93565b906000526020600020906005020160040160006101000a815481600160a060020a030219169083600160a060020a031602179055505b505050565b6000805460405160e060020a635e57966d028152336004820152600160a060020a0390911690635e57966d90602401600060405180830381865afa15801561051c573d6000803e3d6000fd5b505050506040513d6000823e601f3d908101601f19168201604052610544919081019061103a565b6000805460405160e160020a637bb7ca87028152600481018690529293509091600160a060020a039091169063f76f950e90602401600060405180830381865afa158015610596573d6000803e3d6000fd5b505050506040513d6000823e601f3d908101601f191682016040526105be919081019061103a565b6001546000805460405160e060020a63211a42370281529394509092600160a060020a03928316926321a3a8bd92169063211a42379061060490889088906004016110b0565b600060405180830381865afa158015610621573d6000803e3d6000fd5b505050506040513d6000823e601f3d908101601f19168201604052610649919081019061103a565b610656426201518061116a565b605060006040518563ffffffff1660e060020a02815260040161067c9493929190611182565b6020604051808303816000875af115801561069b573d6000803e3d6000fd5b505050506040513d601f19601f820116820180604052508101906106bf9190611021565b6000948552600360209081526040808720805460018101825590885282882001839055918652600590529093208054600160a060020a03191633179055505050565b6000805b60025481101561078b5760005b60008281526003602052604090205481101561077857600082815260036020526040902080548591908390811061074b5761074b610f93565b90600052602060002001541415610766575060019392505050565b8061077081611006565b915050610712565b508061078381611006565b915050610705565b50600092915050565b6000828152600360209081526040808320805482518185028101850190935280835284938301828280156107e757602002820191906000526020600020905b8154815260200190600101908083116107d3575b5050505050905060005b81518110156108615783600160a060020a03166005600084848151811061081a5761081a610f93565b602090810291909101810151825281019190915260400160002054600160a060020a0316141561084f57600192505050610868565b8061085981611006565b9150506107f1565b5060009150505b92915050565b6000805460405160e160020a637bb7ca8702815260048101849052600160a060020a039091169063f76f950e90602401600060405180830381865afa1580156108bb573d6000803e3d6000fd5b505050506040513d6000823e601f3d908101601f191682016040526108e3919081019061103a565b600083815260046020526040812054919250901561099057600080548482526004602052604090912054600160a060020a0390911690637af3f80d9061092b906001906111b1565b6040518263ffffffff1660e060020a02815260040161094c91815260200190565b602060405180830381865afa158015610969573d6000803e3d6000fd5b505050506040513d601f19601f8201168201806040525081019061098d91906111c8565b90505b600283815481106109a3576109a3610f93565b6000918252602090912060059091020160040154600160a060020a0316331480156109cc575080155b156104cb5760005460028054600160a060020a039092169163f87009d29190869081106109fb576109fb610f93565b906000526020600020906005020160020160009054906101000a9004600160a060020a031660028681548110610a3357610a33610f93565b6000918252602082206004600590920201810154915460405160e060020a63211a4237028152600160a060020a0393841693919091169163211a423791610a7c918a91016111ec565b600060405180830381865afa158015610a99573d6000803e3d6000fd5b505050506040513d6000823e601f3d908101601f19168201604052610ac1919081019061103a565b60028881548110610ad457610ad4610f93565b9060005260206000209060050201600301546040518563ffffffff1660e060020a028152600401610b08949392919061128a565b600060405180830381600087803b158015610b2257600080fd5b505af1158015610b36573d6000803e3d6000fd5b5050505060008054906101000a9004600160a060020a0316600160a060020a0316631c00dd8e6040518163ffffffff1660e060020a028152600401602060405180830381865afa158015610b8e573d6000803e3d6000fd5b505050506040513d601f19601f82011682018060405250810190610bb29190611021565b600084815260046020526040902055505050565b6040805160a0810182528581526020808201869052600160a060020a0385169282019290925260608101839052600060808201819052600280546001810182559152815180519293849360059093027f405787fa12a823e0f2b7631cc41b3ba8828b3321ca811111fa75cd3aa3bb5ace0192610c459284920190610c9c565b50602082015160018201556040820151600282018054600160a060020a0319908116600160a060020a0393841617909155606084015160038401556080909301516004909201805490931691161790555050505050565b828054610ca890610fad565b90600052602060002090601f016020900481019282610cca5760008555610d10565b82601f10610ce357805160ff1916838001178555610d10565b82800160010185558215610d10579182015b82811115610d10578251825591602001919060010190610cf5565b50610d1c929150610d20565b5090565b5b80821115610d1c5760008155600101610d21565b600060208284031215610d4757600080fd5b5035919050565b60005b83811015610d69578181015183820152602001610d51565b83811115610d78576000848401525b50505050565b60008151808452610d96816020860160208601610d4e565b601f01601f19169290920160200192915050565b60e081526000610dbd60e083018a610d7e565b602083019890985250600160a060020a039586166040820152606081019490945291909316608083015291151560a082015260c00152919050565b8015158114610e0657600080fd5b50565b60008060408385031215610e1c57600080fd5b823591506020830135610e2e81610df8565b809150509250929050565b8035600160a060020a0381168114610e5057600080fd5b919050565b60008060408385031215610e6857600080fd5b82359150610e7860208401610e39565b90509250929050565b60e060020a634e487b710260009081526041600452602490fd5b604051601f8201601f191681016001604060020a0381118282101715610ec357610ec3610e81565b604052919050565b60006001604060020a03821115610ee457610ee4610e81565b50601f01601f191660200190565b60008060008060808587031215610f0857600080fd5b84356001604060020a03811115610f1e57600080fd5b8501601f81018713610f2f57600080fd5b8035610f42610f3d82610ecb565b610e9b565b818152886020838501011115610f5757600080fd5b8160208401602083013760006020838301015280965050505060208501359250610f8360408601610e39565b9396929550929360600135925050565b60e060020a634e487b710260009081526032600452602490fd5b600281046001821680610fc157607f821691505b60208210811415610fe65760e060020a634e487b710260009081526022600452602490fd5b50919050565b60e060020a634e487b710260009081526011600452602490fd5b600060001982141561101a5761101a610fec565b5060010190565b60006020828403121561103357600080fd5b5051919050565b60006020828403121561104c57600080fd5b81516001604060020a0381111561106257600080fd5b8201601f8101841361107357600080fd5b8051611081610f3d82610ecb565b81815285602083850101111561109657600080fd5b6110a7826020830160208601610d4e565b95945050505050565b60e08152600860e082015260c560020a67020b8383937bb3290261010082015260006101208060208401526110e781840186610d7e565b905082810380604085015260108252608060020a6f20746f2066696e697368207461736b23026020830152604081016060850152506111296040820185610d7e565b9050828103806080850152600082526020810160a085015250611153602082016000815260200190565b83810360c0850152600081529050602081016110a7565b6000821982111561117d5761117d610fec565b500190565b6080815260006111956080830187610d7e565b6020830195909552506040810192909252606090910152919050565b6000828210156111c3576111c3610fec565b500390565b6000602082840312156111da57600080fd5b81516111e581610df8565b9392505050565b60e08152601260e0820152607060020a717265776172647320666f72207461736b202302610100820152600061012080602084015261122d81840185610d7e565b90508281038060408501526000825260208101606085015260006020830152604081016080850152600060408301526060810160a0850152600060608301526080810160c0850152506000608082015260a0810191505092915050565b600160a060020a038581168252841660208201526080604082018190526000906112b690830185610d7e565b90508260608301529594505050505056fea2646970667358221220bbc57894c4e40369dd78a20ba1304196a5aba85ec8157c5dc512406c6e2650ce64736f6c634300080a0033608060405234801561001057600080fd5b5060405161055a38038061055a83398101604081905261002f9161018a565b85516100429060009060208901906100a6565b5060018054600160a060020a0319908116600160a060020a0397881617909155600280548216958716959095179094556003805485169386169390931790925560048054841691851691909117905560058054909216921691909117905550610302565b8280546100b2906102ae565b90600052602060002090601f0160209004810192826100d4576000855561011a565b82601f106100ed57805160ff191683800117855561011a565b8280016001018555821561011a579182015b8281111561011a5782518255916020019190600101906100ff565b5061012692915061012a565b5090565b5b80821115610126576000815560010161012b565b7f4e487b7100000000000000000000000000000000000000000000000000000000600052604160045260246000fd5b8051600160a060020a038116811461018557600080fd5b919050565b60008060008060008060c087890312156101a357600080fd5b865167ffffffffffffffff808211156101bb57600080fd5b818901915089601f8301126101cf57600080fd5b8151818111156101e1576101e161013f565b604051601f8201601f19908116603f011681019083821181831017156102095761020961013f565b81604052828152602093508c8484870101111561022557600080fd5b600091505b82821015610247578482018401518183018501529083019061022a565b828211156102585760008484830101525b995061026891505089820161016e565b965050506102786040880161016e565b93506102866060880161016e565b92506102946080880161016e565b91506102a260a0880161016e565b90509295509295509295565b6002810460018216806102c257607f821691505b602082108114156102fc577f4e487b7100000000000000000000000000000000000000000000000000000000600052602260045260246000fd5b50919050565b610249806103116000396000f3fe608060405234801561001057600080fd5b50600436106100655760e060020a600035046304b2c6c6811461006a57806373e38eca14610094578063a88a236b146100a5578063ba4020f0146100b6578063c6ea59b9146100c7578063e2ab6d97146100dc575b600080fd5b600154600160a060020a03165b604051600160a060020a0390911681526020015b60405180910390f35b600554600160a060020a0316610077565b600454600160a060020a0316610077565b600354600160a060020a0316610077565b6100cf6100ed565b60405161008b919061017f565b600254600160a060020a0316610077565b6060600080546100fc906101d4565b80601f0160208091040260200160405190810160405280929190818152602001828054610128906101d4565b80156101755780601f1061014a57610100808354040283529160200191610175565b820191906000526020600020905b81548152906001019060200180831161015857829003601f168201915b5050505050905090565b600060208083528351808285015260005b818110156101ac57858101830151858201604001528201610190565b818111156101be576000604083870101525b50601f01601f1916929092016040019392505050565b6002810460018216806101e857607f821691505b6020821081141561020d5760e060020a634e487b710260009081526022600452602490fd5b5091905056fea264697066735822122074f9ce442ffcab770d8dd49487b9531220ed83afedabfc0b4e30426fdc41589764736f6c634300080a0033a264697066735822122091b832b57e0b6108ffe70aa059934a63f7f5d5218eeaf8705868007f0a6c920264736f6c634300080a0033",
  "immutableReferences": {},
  "source": "// SPDX-License-Identifier: MIT\npragma solidity >=0.4.22 <0.9.0;\nimport \"./Token.sol\";\nimport \"./Voting.sol\";\nimport \"./Finance.sol\";\nimport \"./Fundraising.sol\";\nimport \"./Roadmap.sol\";\n\ncontract DAOfactory{\n    event newDAO(string name, address addr, address token, address voting, address finance);\n    DAO[] daos;\n\n    function create_DAO(string memory _name, string memory tok_name, string memory tok_symbol, uint256 tok_amount) public {\n        Token token = new Token(tok_name, tok_symbol);\n        Token t = new Token(\"share\",\"SHARE\");\n        token.mint(msg.sender, tok_amount);\n        Voting voting = new Voting(token);\n        Finance finance = new Finance(voting);\n        Fundraising fundraising = new Fundraising(t);\n        Roadmap roadmap = new Roadmap(finance, voting);\n        DAO dao = new DAO(_name, address(token), address(voting), address(finance), address(fundraising), address(roadmap));\n        daos.push(dao);\n        emit newDAO(_name, address(dao), address(token), address(voting), address(finance));\n    }\n\n    \n    // function search_DAO(string memory _name) public view returns (address) {\n    //     address addr;\n    //     for(uint i=0; i<daos.length; i++){\n    //         if(CompareStr(daos[i].getname(), _name)){\n    //             addr = address(daos[i]);\n    //         }\n    //     }\n    //     return addr;\n    // }\n\n    // function CompareStr(string memory a, string memory b) public pure returns (bool) {\n    // return (keccak256(abi.encodePacked((a))) == keccak256(abi.encodePacked((b))));\n    // }\n}\n\ncontract DAO{\n    string name;\n    address token;\n    address voting;\n    address finance;\n    address fundraising;\n    address roadmap;\n\n    constructor(string memory _name, address _token, address _voting, address _finance, address _fundraising, address _roadmap){\n        name = _name;\n        token = _token;\n        voting = _voting;\n        finance = _finance;\n        fundraising = _fundraising;\n        roadmap = _roadmap;\n    }\n    \n    //get information of the contract\n    function getname() public view returns (string memory) {return name;}\n\n    //get goverance token\n    function gettoken() public view returns (address) {return token;}\n\n    //get voting\n    function getvoting() public view returns (address) {return voting;}\n\n    //get finance\n    function getfinance() public view returns (address) {return finance;}\n\n    //get fundraising\n    function getfundraising()  public view returns (address) {return fundraising;}\n\n    //get roadmap\n    function getroadmap()  public view returns (address) {return roadmap;}\n}",
  "sourcePath": "/Users/shiqianghan/Desktop/CS310 Project DAO/code/truffle/contracts/DAOfactory.sol",
  "compiler": {
    "name": "solc",
    "version": "0.8.10+commit.fc410830.Emscripten.clang"
  },
  "schemaVersion": "3.4.4",
  "updatedAt": "2022-03-17T13:23:54.257Z",
  "networkType": "ethereum",
  "devdoc": {
    "kind": "dev",
    "methods": {},
    "version": 1
  },
  "userdoc": {
    "kind": "user",
    "methods": {},
    "version": 1
  }
}