{
  "contractName": "Finance",
  "abi": [
    {
      "inputs": [
        {
          "internalType": "contract Voting",
          "name": "_voting",
          "type": "address"
        }
      ],
      "stateMutability": "nonpayable",
      "type": "constructor"
    },
    {
      "inputs": [
        {
          "internalType": "address",
          "name": "_token",
          "type": "address"
        },
        {
          "internalType": "address",
          "name": "_receiver",
          "type": "address"
        },
        {
          "internalType": "string",
          "name": "_refer",
          "type": "string"
        },
        {
          "internalType": "uint256",
          "name": "_amount",
          "type": "uint256"
        }
      ],
      "name": "withdraw",
      "outputs": [],
      "stateMutability": "nonpayable",
      "type": "function"
    },
    {
      "inputs": [
        {
          "internalType": "uint256",
          "name": "voteId",
          "type": "uint256"
        },
        {
          "internalType": "bool",
          "name": "support",
          "type": "bool"
        }
      ],
      "name": "withdraw_take_vote",
      "outputs": [],
      "stateMutability": "nonpayable",
      "type": "function"
    },
    {
      "inputs": [
        {
          "internalType": "uint256",
          "name": "voteId",
          "type": "uint256"
        }
      ],
      "name": "is_withdraw_vote",
      "outputs": [
        {
          "internalType": "bool",
          "name": "",
          "type": "bool"
        }
      ],
      "stateMutability": "view",
      "type": "function"
    },
    {
      "inputs": [
        {
          "internalType": "address",
          "name": "_token",
          "type": "address"
        },
        {
          "internalType": "address",
          "name": "_receiver",
          "type": "address"
        },
        {
          "internalType": "string",
          "name": "_refer",
          "type": "string"
        },
        {
          "internalType": "uint256",
          "name": "_amount",
          "type": "uint256"
        }
      ],
      "name": "deposit",
      "outputs": [],
      "stateMutability": "nonpayable",
      "type": "function"
    },
    {
      "inputs": [],
      "name": "get_transfer_length",
      "outputs": [
        {
          "internalType": "uint256",
          "name": "",
          "type": "uint256"
        }
      ],
      "stateMutability": "view",
      "type": "function"
    },
    {
      "inputs": [
        {
          "internalType": "uint256",
          "name": "id",
          "type": "uint256"
        }
      ],
      "name": "get_transfer",
      "outputs": [
        {
          "internalType": "uint256",
          "name": "",
          "type": "uint256"
        },
        {
          "internalType": "address",
          "name": "",
          "type": "address"
        },
        {
          "internalType": "string",
          "name": "",
          "type": "string"
        },
        {
          "internalType": "uint256",
          "name": "",
          "type": "uint256"
        }
      ],
      "stateMutability": "view",
      "type": "function"
    },
    {
      "inputs": [
        {
          "internalType": "uint256",
          "name": "id",
          "type": "uint256"
        }
      ],
      "name": "is_withdraw",
      "outputs": [
        {
          "internalType": "bool",
          "name": "",
          "type": "bool"
        }
      ],
      "stateMutability": "view",
      "type": "function"
    },
    {
      "inputs": [
        {
          "internalType": "uint256",
          "name": "id",
          "type": "uint256"
        }
      ],
      "name": "is_transfered",
      "outputs": [
        {
          "internalType": "bool",
          "name": "",
          "type": "bool"
        }
      ],
      "stateMutability": "view",
      "type": "function"
    },
    {
      "inputs": [
        {
          "internalType": "uint256",
          "name": "id",
          "type": "uint256"
        }
      ],
      "name": "transfer_state",
      "outputs": [
        {
          "internalType": "uint256",
          "name": "",
          "type": "uint256"
        }
      ],
      "stateMutability": "view",
      "type": "function"
    },
    {
      "inputs": [
        {
          "internalType": "address",
          "name": "_addr",
          "type": "address"
        }
      ],
      "name": "addressToString",
      "outputs": [
        {
          "internalType": "string",
          "name": "",
          "type": "string"
        }
      ],
      "stateMutability": "pure",
      "type": "function"
    },
    {
      "inputs": [
        {
          "internalType": "uint256",
          "name": "_i",
          "type": "uint256"
        }
      ],
      "name": "uint2str",
      "outputs": [
        {
          "internalType": "string",
          "name": "_uintAsString",
          "type": "string"
        }
      ],
      "stateMutability": "pure",
      "type": "function"
    },
    {
      "inputs": [
        {
          "internalType": "string",
          "name": "a",
          "type": "string"
        },
        {
          "internalType": "string",
          "name": "b",
          "type": "string"
        },
        {
          "internalType": "string",
          "name": "c",
          "type": "string"
        },
        {
          "internalType": "string",
          "name": "d",
          "type": "string"
        },
        {
          "internalType": "string",
          "name": "e",
          "type": "string"
        },
        {
          "internalType": "string",
          "name": "f",
          "type": "string"
        },
        {
          "internalType": "string",
          "name": "g",
          "type": "string"
        }
      ],
      "name": "append",
      "outputs": [
        {
          "internalType": "string",
          "name": "",
          "type": "string"
        }
      ],
      "stateMutability": "pure",
      "type": "function"
    }
  ],
  "bytecode": "0x608060405234801561001057600080fd5b50604051611b5b380380611b5b83398101604081905261002f91610054565b60008054600160a060020a031916600160a060020a0392909216919091179055610084565b60006020828403121561006657600080fd5b8151600160a060020a038116811461007d57600080fd5b9392505050565b611ac8806100936000396000f3fe608060405234801561001057600080fd5b50600436106100a75760e060020a60003504631c00dd8e81146100ac578063211a4237146100c357806331a7ca28146100e3578063378f96ee146100f65780634dd85148146101195780635e57966d1461012e5780637aa7b57b146101415780637af3f80d14610154578063b442257114610167578063d16297d11461018a578063f76f950e1461019d578063f87009d2146101b0575b600080fd5b6001545b6040519081526020015b60405180910390f35b6100d66100d13660046114b8565b6101c3565b6040516100ba919061162a565b6100b06100f136600461163d565b6101fe565b61010961010436600461163d565b6103ae565b60405190151581526020016100ba565b61012c610127366004611656565b6104e0565b005b6100d661013c3660046116a7565b6105af565b61010961014f36600461163d565b6107c5565b61010961016236600461163d565b610823565b61017a61017536600461163d565b610955565b6040516100ba94939291906116c2565b61012c6101983660046116fd565b610a42565b6100d66101ab36600461163d565b610be5565b61012c6101be3660046116fd565b610d0a565b6060878787878787876040516020016101e29796959493929190611762565b6040516020818303038152906040529050979650505050505050565b60008060018381548110610214576102146117f4565b6000918252602091829020604080516101008101825260079093029091018054600160a060020a03908116845260018201541693830193909352600283015490820152600382015460608201526004820180549192916080840191906102799061180e565b80601f01602080910402602001604051908101604052809291908181526020018280546102a59061180e565b80156102f25780601f106102c7576101008083540402835291602001916102f2565b820191906000526020600020905b8154815290600101906020018083116102d557829003601f168201915b50505091835250506005820154602082015260069091015460ff808216151560408085019190915261010090920416151560609092019190915260005460a0830151915160e160020a6344990ead028152929350600160a060020a0316916389321d5a916103669160040190815260200190565b602060405180830381865afa158015610383573d6000803e3d6000fd5b505050506040513d601f19601f820116820180604052508101906103a7919061184d565b9392505050565b600080600183815481106103c4576103c46117f4565b6000918252602091829020604080516101008101825260079093029091018054600160a060020a03908116845260018201541693830193909352600283015490820152600382015460608201526004820180549192916080840191906104299061180e565b80601f01602080910402602001604051908101604052809291908181526020018280546104559061180e565b80156104a25780601f10610477576101008083540402835291602001916104a2565b820191906000526020600020905b81548152906001019060200180831161048557829003601f168201915b50505091835250506005820154602082015260069091015460ff8082161515604084015261010090910416151560609091015260e001519392505050565b6000805b6001548110156105305760018181548110610501576105016117f4565b90600052602060002090600702016005015484141561051e578091505b8061052881611880565b9150506104e4565b5060005460405160e060020a63490882ed028152336004820152602481018590528315156044820152600160a060020a039091169063490882ed90606401600060405180830381600087803b15801561058857600080fd5b505af115801561059c573d6000803e3d6000fd5b505050506105a981610feb565b50505050565b60408051808201825260108152608160020a6f181899199a1a9b1b9c1cb0b131b232b3026020820152815160338082526060828101909452600160a060020a038516929160009160208201818036833701905050905060fc60020a60030281600081518110610620576106206117f4565b6020010190600160f860020a031916908160001a90535060fb60020a600f0281600181518110610652576106526117f4565b6020010190600160f860020a031916908160001a90535060005b60148110156107bc578260048561068484600c61189b565b60208110610694576106946117f4565b1a60f860020a02600160f860020a031916908060020a820491505060f860020a900460ff16815181106106c9576106c96117f4565b016020015160f860020a9081900402826106e48360026118b3565b6106ef90600261189b565b815181106106ff576106ff6117f4565b6020010190600160f860020a031916908160001a905350828461072383600c61189b565b60208110610733576107336117f4565b1a60f860020a02600f60f860020a021660f860020a900460ff168151811061075d5761075d6117f4565b016020015160f860020a9081900402826107788360026118b3565b61078390600361189b565b81518110610793576107936117f4565b6020010190600160f860020a031916908160001a905350806107b481611880565b91505061066c565b50949350505050565b6000805b60015481101561081a57600181815481106107e6576107e66117f4565b9060005260206000209060070201600501548314156108085750600192915050565b8061081281611880565b9150506107c9565b50600092915050565b60008060018381548110610839576108396117f4565b6000918252602091829020604080516101008101825260079093029091018054600160a060020a039081168452600182015416938301939093526002830154908201526003820154606082015260048201805491929160808401919061089e9061180e565b80601f01602080910402602001604051908101604052809291908181526020018280546108ca9061180e565b80156109175780601f106108ec57610100808354040283529160200191610917565b820191906000526020600020905b8154815290600101906020018083116108fa57829003601f168201915b50505091835250506005820154602082015260069091015460ff8082161515604084015261010090910416151560609091015260c001519392505050565b600080606060008060018681548110610970576109706117f4565b9060005260206000209060070201905080600201548160010160009054906101000a9004600160a060020a03168260040183600301548180546109b29061180e565b80601f01602080910402602001604051908101604052809291908181526020018280546109de9061180e565b8015610a2b5780601f10610a0057610100808354040283529160200191610a2b565b820191906000526020600020905b815481529060010190602001808311610a0e57829003601f168201915b505050505091509450945094509450509193509193565b600280546001808201835560009283527f405787fa12a823e0f2b7631cc41b3ba8828b3321ca811111fa75cd3aa3bb5ace9091018054600160a060020a031916600160a060020a03888116918217909255604080516101008101825291825291871660208201524291810191909152606081018490526080810185905260a0810183905260c081019190915260e08101919091528490610ae48286308661128c565b6001805480820182556000919091528151600080516020611a3383398151915260079092029182018054600160a060020a0319908116600160a060020a03938416178255602080860151600080516020611a538339815191528601805490931694169390931790556040840151600080516020611a138339815191528401556060840151600080516020611a738339815191528401556080840151805185949293610ba1936000805160206119f383398151915201920190611358565b5060a0820151600582015560c08201516006909101805460e09093015115156101000261ff00199215159290921661ffff1990931692909217179055505050505050565b606081610c0c575050604080518082019091526001815260fc60020a600302602082015290565b8160005b8115610c365780610c2081611880565b9150610c2f9050600a836118d2565b9150610c10565b6000816001604060020a03811115610c5057610c506113f1565b6040519080825280601f01601f191660200182016040528015610c7a576020820181803683370190505b509050815b85156107bc57610c906001826118f8565b90506000610c9f600a886118d2565b610caa90600a6118b3565b610cb490886118f8565b610cbf90603061190f565b905060008160f860020a02905080848481518110610cdf57610cdf6117f4565b6020010190600160f860020a031916908160001a905350610d01600a896118d2565b97505050610c7f565b6000849050600081600160a060020a03166395d89b416040518163ffffffff1660e060020a028152600401600060405180830381865afa158015610d52573d6000803e3d6000fd5b505050506040513d6000823e601f3d908101601f19168201604052610d7a9190810190611934565b90506000610d8784610be5565b90506000610d94876105af565b905060008060009054906101000a9004600160a060020a0316600160a060020a03166321a3a8bd610e3560405180604001604052806009815260200160bd60020a6802a3930b739b332b9102815250868860405180604001604052806004815260200160e560020a630103a37902815250886040518060400160405280600d8152602001609d60020a6c017102932b332b932b731b29d1028152508f6101c3565b610e42426201518061189b565b605060006040518563ffffffff1660e060020a028152600401610e6894939291906119aa565b6020604051808303816000875af1158015610e87573d6000803e3d6000fd5b505050506040513d601f19601f82011682018060405250810190610eab919061184d565b6040805161010081018252600160a060020a03808d1682528b8116602080840191825242948401948552606084018c8152608085018e815260a08601889052600060c08701819052600160e0880181905280548082018255915286516007909102600080516020611a3383398151915281018054928816600160a060020a03199384161781559551600080516020611a5383398151915282018054919098169216919091179095559551600080516020611a1383398151915285015551600080516020611a7383398151915284015593518051959650929485949193610fa3936000805160206119f383398151915201920190611358565b5060a0820151600582015560c08201516006909101805460e09093015115156101000261ff00199215159290921661ffff199093169290921717905550505050505050505050565b60008060018381548110611001576110016117f4565b6000918252602091829020604080516101008101825260079093029091018054600160a060020a03908116845260018201541693830193909352600283015490820152600382015460608201526004820180549192916080840191906110669061180e565b80601f01602080910402602001604051908101604052809291908181526020018280546110929061180e565b80156110df5780601f106110b4576101008083540402835291602001916110df565b820191906000526020600020905b8154815290600101906020018083116110c257829003601f168201915b50505091835250506005820154602082015260069091015460ff8082161515604084015261010090910416151560609091015260c08101519091501580156111a1575060005460a082015160405160e160020a6344990ead028152600160a060020a03909216916389321d5a9161115c9160040190815260200190565b602060405180830381865afa158015611179573d6000803e3d6000fd5b505050506040513d601f19601f8201168201806040525081019061119d919061184d565b6001145b156111fa5760018084815481106111ba576111ba6117f4565b906000526020600020906007020160060160006101000a81548160ff0219169083151502179055506111fa8160000151308360200151846060015161128c565b60c08101511580156103a7575060005460a082015160405160e160020a6344990ead028152600160a060020a03909216916389321d5a916112419160040190815260200190565b602060405180830381865afa15801561125e573d6000803e3d6000fd5b505050506040513d601f19601f82011682018060405250810190611282919061184d565b6001149392505050565b60405160e060020a6340c10f19028152600160a060020a038516906340c10f19906112bd90859085906004016119d9565b600060405180830381600087803b1580156112d757600080fd5b505af11580156112eb573d6000803e3d6000fd5b505060405160e260020a632770a7eb028152600160a060020a0387169250639dc29fac915061132090869085906004016119d9565b600060405180830381600087803b15801561133a57600080fd5b505af115801561134e573d6000803e3d6000fd5b5050505050505050565b8280546113649061180e565b90600052602060002090601f01602090048101928261138657600085556113cc565b82601f1061139f57805160ff19168380011785556113cc565b828001600101855582156113cc579182015b828111156113cc5782518255916020019190600101906113b1565b506113d89291506113dc565b5090565b5b808211156113d857600081556001016113dd565b60e060020a634e487b710260009081526041600452602490fd5b604051601f8201601f191681016001604060020a0381118282101715611433576114336113f1565b604052919050565b60006001604060020a03821115611454576114546113f1565b50601f01601f191660200190565b600082601f83011261147357600080fd5b81356114866114818261143b565b61140b565b81815284602083860101111561149b57600080fd5b816020850160208301376000918101602001919091529392505050565b600080600080600080600060e0888a0312156114d357600080fd5b87356001604060020a03808211156114ea57600080fd5b6114f68b838c01611462565b985060208a013591508082111561150c57600080fd5b6115188b838c01611462565b975060408a013591508082111561152e57600080fd5b61153a8b838c01611462565b965060608a013591508082111561155057600080fd5b61155c8b838c01611462565b955060808a013591508082111561157257600080fd5b61157e8b838c01611462565b945060a08a013591508082111561159457600080fd5b6115a08b838c01611462565b935060c08a01359150808211156115b657600080fd5b506115c38a828b01611462565b91505092959891949750929550565b60005b838110156115ed5781810151838201526020016115d5565b838111156105a95750506000910152565b600081518084526116168160208601602086016115d2565b601f01601f19169290920160200192915050565b6020815260006103a760208301846115fe565b60006020828403121561164f57600080fd5b5035919050565b6000806040838503121561166957600080fd5b823591506020830135801515811461168057600080fd5b809150509250929050565b8035600160a060020a03811681146116a257600080fd5b919050565b6000602082840312156116b957600080fd5b6103a78261168b565b848152600160a060020a03841660208201526080604082018190526000906116ec908301856115fe565b905082606083015295945050505050565b6000806000806080858703121561171357600080fd5b61171c8561168b565b935061172a6020860161168b565b925060408501356001604060020a0381111561174557600080fd5b61175187828801611462565b949793965093946060013593505050565b6000885160206117758285838e016115d2565b8951918401916117888184848e016115d2565b895192019161179a8184848d016115d2565b88519201916117ac8184848c016115d2565b87519201916117be8184848b016115d2565b86519201916117d08184848a016115d2565b85519201916117e281848489016115d2565b919091019a9950505050505050505050565b60e060020a634e487b710260009081526032600452602490fd5b60028104600182168061182257607f821691505b602082108114156118475760e060020a634e487b710260009081526022600452602490fd5b50919050565b60006020828403121561185f57600080fd5b5051919050565b60e060020a634e487b710260009081526011600452602490fd5b600060001982141561189457611894611866565b5060010190565b600082198211156118ae576118ae611866565b500190565b60008160001904831182151516156118cd576118cd611866565b500290565b6000826118f35760e060020a634e487b710260009081526012600452602490fd5b500490565b60008282101561190a5761190a611866565b500390565b600060ff821660ff84168060ff0382111561192c5761192c611866565b019392505050565b60006020828403121561194657600080fd5b81516001604060020a0381111561195c57600080fd5b8201601f8101841361196d57600080fd5b805161197b6114818261143b565b81815285602083850101111561199057600080fd5b6119a18260208301602086016115d2565b95945050505050565b6080815260006119bd60808301876115fe565b6020830195909552506040810192909252606090910152919050565b600160a060020a0392909216825260208201526040019056feb10e2d527612073b26eecdfd717e6a320cf44b4afac2b0732d9fcbe2b7fa0cfab10e2d527612073b26eecdfd717e6a320cf44b4afac2b0732d9fcbe2b7fa0cf8b10e2d527612073b26eecdfd717e6a320cf44b4afac2b0732d9fcbe2b7fa0cf6b10e2d527612073b26eecdfd717e6a320cf44b4afac2b0732d9fcbe2b7fa0cf7b10e2d527612073b26eecdfd717e6a320cf44b4afac2b0732d9fcbe2b7fa0cf9a26469706673582212200eb05c0ebfe43316e4f216d565f4a27a1249b96c4f7eccf2f126b4c8a985021e64736f6c634300080a0033",
  "immutableReferences": {},
  "source": "// SPDX-License-Identifier: MIT\npragma solidity >=0.4.22 <0.9.0;\n// import \"@openzeppelin/contracts/token/ERC20/ERC20.sol\";\nimport \"./Voting.sol\";\nimport \"./Token.sol\";\n// import \"@openzeppelin/contracts/utils/Strings.sol\";\n\ncontract Finance{\n    Voting voting;\n    \n    constructor(Voting _voting) {\n        voting = _voting;       \n    }\n\n    struct transfer{\n        address token;\n        address receiver;\n        uint256 date;\n        uint256 amount;\n        string refer;\n        uint256 voteId;\n        bool isTransfered;\n        bool isWithdraw;\n    }\n\n    transfer[] transfers;\n    Token[] tokens;\n    \n\n    function withdraw(address _token, address _receiver, string memory _refer, uint256 _amount) external {\n        Token token = Token(_token);\n        string memory Symbol= token.symbol();\n        string memory amount = uint2str(_amount);\n        string memory receiver = addressToString(_receiver);\n        uint256 _voteId = voting.create_vote(append(\"Transfer \", amount, Symbol, \" to \", receiver, \". Reference: \", _refer), block.timestamp+86400, 80, 0);\n        transfer memory newtransfer = transfer(_token, _receiver, block.timestamp, _amount, _refer, _voteId, false, true);\n        transfers.push(newtransfer);\n    }\n\n    function withdraw_take_vote(uint256 voteId, bool support) public {\n        uint256 id;\n        for(uint i; i<transfers.length; i++){\n            if(voteId == transfers[i].voteId){\n                id = i;\n            }\n        }\n        voting.withdraw_vote(msg.sender, voteId, support);\n        can_withdraw(id);\n    }\n\n    function is_withdraw_vote(uint256 voteId) public view returns(bool){\n        for(uint i; i<transfers.length; i++){\n            if(voteId == transfers[i].voteId){\n                return true;\n            }\n        }\n        return false;\n    }\n\n    function deposit(address _token, address _receiver, string memory _refer, uint256 _amount) external {\n        Token token = Token(_token);\n        tokens.push(token);\n        transfer memory new_deposit = transfer(_token, _receiver, block.timestamp, _amount, _refer, 0, true, false);\n        _transfer(_token, _receiver, address(this), _amount);\n        transfers.push(new_deposit);\n    }\n\n    function _transfer(address _token, address _from, address _to, uint256 _amount) internal{\n        Token(_token).mint(_to, _amount);\n        Token(_token).burn(_from, _amount);\n    }\n\n    function get_transfer_length() public view returns(uint256){\n        return transfers.length;\n    }\n\n    function get_transfer(uint256 id) public view returns(uint256, address, string memory, uint256){\n        transfer storage t = transfers[id];    \n        return(t.date, t.receiver, t.refer, t.amount);\n        \n    }\n  \n    function can_withdraw(uint256 id) internal returns(bool){\n        transfer memory t = transfers[id];\n        if(t.isTransfered == false && voting.vote_is_apporved(t.voteId) == 1){\n            transfers[id].isTransfered = true;  \n            _transfer(t.token, address(this), t.receiver, t.amount); \n        }\n        return (t.isTransfered == false && voting.vote_is_apporved(t.voteId) == 1);\n    }\n\n    function is_withdraw(uint256 id) public view returns(bool){\n        transfer memory t = transfers[id];\n        return t.isWithdraw;\n    }\n\n    function is_transfered(uint256 id) public view returns(bool){\n        transfer memory t = transfers[id];\n        return t.isTransfered;\n    }\n\n    function transfer_state(uint256 id) public view returns(uint256){\n        transfer memory t = transfers[id];\n        return voting.vote_is_apporved(t.voteId);\n    }\n\n\n\n\n    //******* utils ************************************************//\n    function addressToString(address _addr) public pure returns(string memory) {\n    bytes32 value = bytes32(uint256(uint160(_addr)));\n    bytes memory alphabet = \"0123456789abcdef\";\n\n    bytes memory str = new bytes(51);\n    str[0] = \"0\";\n    str[1] = \"x\";\n    for (uint i = 0; i < 20; i++) {\n        str[2+i*2] = alphabet[uint(uint8(value[i + 12] >> 4))];\n        str[3+i*2] = alphabet[uint(uint8(value[i + 12] & 0x0f))];\n    }\n    return string(str);\n    }\n\n    function uint2str(uint _i) public pure returns (string memory _uintAsString) {\n        if (_i == 0) {\n            return \"0\";\n        }\n        uint j = _i;\n        uint len;\n        while (j != 0) {\n            len++;\n            j /= 10;\n        }\n        bytes memory bstr = new bytes(len);\n        uint k = len;\n        while (_i != 0) {\n            k = k-1;\n            uint8 temp = (48 + uint8(_i - _i / 10 * 10));\n            bytes1 b1 = bytes1(temp);\n            bstr[k] = b1;\n            _i /= 10;\n        }\n        return string(bstr);\n    }\n\n    function append(string memory a, string memory b, string memory c, string memory d, string memory e, string memory f, string memory g) public pure returns (string memory) {\n\n    return string(abi.encodePacked(a, b, c, d, e, f, g));\n\n}\n}",
  "sourcePath": "/Users/shiqianghan/Desktop/CS310 Project DAO/code/truffle/contracts/Finance.sol",
  "compiler": {
    "name": "solc",
    "version": "0.8.10+commit.fc410830.Emscripten.clang"
  },
  "schemaVersion": "3.4.4",
  "updatedAt": "2022-03-13T12:45:55.792Z",
  "devdoc": {
    "kind": "dev",
    "methods": {},
    "version": 1
  },
  "userdoc": {
    "kind": "user",
    "methods": {},
    "version": 1
  }
}