{
  "contractName": "Fundraising",
  "abi": [
    {
      "inputs": [
        {
          "internalType": "contract Token",
          "name": "_t",
          "type": "address"
        }
      ],
      "stateMutability": "nonpayable",
      "type": "constructor"
    },
    {
      "inputs": [],
      "name": "amount",
      "outputs": [
        {
          "internalType": "uint256",
          "name": "",
          "type": "uint256"
        }
      ],
      "stateMutability": "view",
      "type": "function"
    },
    {
      "inputs": [
        {
          "internalType": "address",
          "name": "tok",
          "type": "address"
        }
      ],
      "name": "contribute",
      "outputs": [],
      "stateMutability": "nonpayable",
      "type": "function"
    },
    {
      "inputs": [
        {
          "internalType": "uint256",
          "name": "id",
          "type": "uint256"
        }
      ],
      "name": "get_history",
      "outputs": [
        {
          "internalType": "address",
          "name": "",
          "type": "address"
        },
        {
          "internalType": "uint256",
          "name": "",
          "type": "uint256"
        },
        {
          "internalType": "uint256",
          "name": "",
          "type": "uint256"
        }
      ],
      "stateMutability": "view",
      "type": "function"
    },
    {
      "inputs": [
        {
          "internalType": "address",
          "name": "account",
          "type": "address"
        }
      ],
      "name": "get_balance",
      "outputs": [
        {
          "internalType": "uint256",
          "name": "",
          "type": "uint256"
        }
      ],
      "stateMutability": "view",
      "type": "function"
    },
    {
      "inputs": [],
      "name": "h_len",
      "outputs": [
        {
          "internalType": "uint256",
          "name": "",
          "type": "uint256"
        }
      ],
      "stateMutability": "view",
      "type": "function"
    }
  ],
  "bytecode": "0x6080604052600060015534801561001557600080fd5b5060405161057238038061057283398101604081905261003491610059565b60008054600160a060020a031916600160a060020a0392909216919091179055610089565b60006020828403121561006b57600080fd5b8151600160a060020a038116811461008257600080fd5b9392505050565b6104da806100986000396000f3fe608060405234801561001057600080fd5b506004361061005a5760e060020a60003504631e279a37811461005f5780632f5bae721461008557806373e888fd1461008d5780639b25708c146100a2578063aa8c217c146100da575b600080fd5b61007261006d3660046103e5565b6100e3565b6040519081526020015b60405180910390f35b600254610072565b6100a061009b3660046103e5565b61015b565b005b6100b56100b0366004610415565b6102b0565b60408051600160a060020a03909416845260208401929092529082015260600161007c565b61007260015481565b6000805460405160e060020a6370a08231028152600160a060020a038481166004830152909116906370a0823190602401602060405180830381865afa158015610131573d6000803e3d6000fd5b505050506040513d601f19601f82011682018060405250810190610155919061042e565b92915050565b6101698133306101f4610319565b6101f46001600082825461017d9190610447565b909155505060005460405160e060020a6340c10f19028152600160a060020a03909116906340c10f19906101b990339061c35090600401610471565b600060405180830381600087803b1580156101d357600080fd5b505af11580156101e7573d6000803e3d6000fd5b50506040805160608101825233815242602082019081526101f49282019283526002805460018101825560009190915291517f405787fa12a823e0f2b7631cc41b3ba8828b3321ca811111fa75cd3aa3bb5ace60039093029283018054600160a060020a031916600160a060020a03909216919091179055517f405787fa12a823e0f2b7631cc41b3ba8828b3321ca811111fa75cd3aa3bb5acf82015590517f405787fa12a823e0f2b7631cc41b3ba8828b3321ca811111fa75cd3aa3bb5ad090910155505050565b600080600080600285815481106102c9576102c961048a565b6000918252602091829020604080516060810182526003939093029091018054600160a060020a031680845260018201549484018590526002909101549290910182905297919650945092505050565b60405160e060020a6340c10f19028152600160a060020a038516906340c10f199061034a9085908590600401610471565b600060405180830381600087803b15801561036457600080fd5b505af1158015610378573d6000803e3d6000fd5b505060405160e260020a632770a7eb028152600160a060020a0387169250639dc29fac91506103ad9086908590600401610471565b600060405180830381600087803b1580156103c757600080fd5b505af11580156103db573d6000803e3d6000fd5b5050505050505050565b6000602082840312156103f757600080fd5b8135600160a060020a038116811461040e57600080fd5b9392505050565b60006020828403121561042757600080fd5b5035919050565b60006020828403121561044057600080fd5b5051919050565b6000821982111561046c5760e060020a634e487b710260009081526011600452602490fd5b500190565b600160a060020a03929092168252602082015260400190565b60e060020a634e487b710260009081526032600452602490fdfea26469706673582212205171e1f8c76bdcb00dd9b2b3c423635b93d8d0798df28b3958c11c16d3d19bc064736f6c634300080a0033",
  "immutableReferences": {},
  "source": "// SPDX-License-Identifier: MIT\npragma solidity >=0.4.22 <0.9.0;\nimport \"./Token.sol\";\n\ncontract Fundraising{\n    Token t;\n\n    constructor(Token _t){\n        t = _t;\n    }\n\n    uint256 public amount = 0;\n\n    struct history{\n        address sender;\n        uint256 date;\n        uint256 amount;\n    }\n    history[] h;\n\n    function contribute(address tok) public {\n        _transfer(tok, msg.sender, address(this), 500);\n        amount += 500;\n        t.mint(msg.sender, 50000);\n        h.push(history(msg.sender, block.timestamp, 500));\n    }\n\n    function _transfer(address _token, address _from, address _to, uint256 _amount) internal{\n        Token(_token).mint(_to, _amount);\n        Token(_token).burn(_from, _amount);\n    }    \n\n    function get_history(uint256 id) public view returns(address, uint256, uint256){\n        history memory H = h[id];\n        return(H.sender, H.date, H.amount);\n    }\n\n    function get_balance(address account) public view returns(uint256){\n        return t.balanceOf(account);\n    }\n\n    function h_len()public view returns(uint256){\n        return h.length;\n    }\n}",
  "sourcePath": "/Users/shiqianghan/Desktop/CS310 Project DAO/code/truffle/contracts/Fundraising.sol",
  "compiler": {
    "name": "solc",
    "version": "0.8.10+commit.fc410830.Emscripten.clang"
  },
  "schemaVersion": "3.4.4",
  "updatedAt": "2022-03-13T09:15:13.541Z",
  "devdoc": {
    "kind": "dev",
    "methods": {},
    "version": 1
  },
  "userdoc": {
    "kind": "user",
    "methods": {},
    "version": 1
  }
}