{
  "contractName": "Roadmap",
  "abi": [
    {
      "inputs": [
        {
          "internalType": "contract Finance",
          "name": "_f",
          "type": "address"
        },
        {
          "internalType": "contract Voting",
          "name": "_v",
          "type": "address"
        }
      ],
      "stateMutability": "nonpayable",
      "type": "constructor"
    },
    {
      "inputs": [
        {
          "internalType": "string",
          "name": "_content",
          "type": "string"
        },
        {
          "internalType": "uint256",
          "name": "_quater",
          "type": "uint256"
        },
        {
          "internalType": "address",
          "name": "_token",
          "type": "address"
        },
        {
          "internalType": "uint256",
          "name": "_rewards",
          "type": "uint256"
        }
      ],
      "name": "create_task",
      "outputs": [],
      "stateMutability": "nonpayable",
      "type": "function"
    },
    {
      "inputs": [],
      "name": "task_len",
      "outputs": [
        {
          "internalType": "uint256",
          "name": "",
          "type": "uint256"
        }
      ],
      "stateMutability": "view",
      "type": "function"
    },
    {
      "inputs": [
        {
          "internalType": "uint256",
          "name": "_id",
          "type": "uint256"
        }
      ],
      "name": "apply_",
      "outputs": [],
      "stateMutability": "nonpayable",
      "type": "function"
    },
    {
      "inputs": [
        {
          "internalType": "uint256",
          "name": "voteId",
          "type": "uint256"
        },
        {
          "internalType": "bool",
          "name": "support",
          "type": "bool"
        }
      ],
      "name": "task_vote",
      "outputs": [],
      "stateMutability": "nonpayable",
      "type": "function"
    },
    {
      "inputs": [
        {
          "internalType": "uint256",
          "name": "_voteId",
          "type": "uint256"
        }
      ],
      "name": "is_task_vote",
      "outputs": [
        {
          "internalType": "bool",
          "name": "",
          "type": "bool"
        }
      ],
      "stateMutability": "view",
      "type": "function"
    },
    {
      "inputs": [
        {
          "internalType": "uint256",
          "name": "taskId",
          "type": "uint256"
        },
        {
          "internalType": "address",
          "name": "caller",
          "type": "address"
        }
      ],
      "name": "is_applied",
      "outputs": [
        {
          "internalType": "bool",
          "name": "",
          "type": "bool"
        }
      ],
      "stateMutability": "view",
      "type": "function"
    },
    {
      "inputs": [
        {
          "internalType": "uint256",
          "name": "taskId",
          "type": "uint256"
        }
      ],
      "name": "claim_reward",
      "outputs": [],
      "stateMutability": "nonpayable",
      "type": "function"
    },
    {
      "inputs": [],
      "name": "get_task_len",
      "outputs": [
        {
          "internalType": "uint256",
          "name": "",
          "type": "uint256"
        }
      ],
      "stateMutability": "view",
      "type": "function"
    },
    {
      "inputs": [
        {
          "internalType": "uint256",
          "name": "id",
          "type": "uint256"
        }
      ],
      "name": "get_task",
      "outputs": [
        {
          "internalType": "string",
          "name": "",
          "type": "string"
        },
        {
          "internalType": "uint256",
          "name": "",
          "type": "uint256"
        },
        {
          "internalType": "address",
          "name": "",
          "type": "address"
        },
        {
          "internalType": "uint256",
          "name": "",
          "type": "uint256"
        },
        {
          "internalType": "address",
          "name": "",
          "type": "address"
        },
        {
          "internalType": "bool",
          "name": "",
          "type": "bool"
        },
        {
          "internalType": "uint256",
          "name": "",
          "type": "uint256"
        }
      ],
      "stateMutability": "view",
      "type": "function"
    }
  ],
  "bytecode": "0x608060405234801561001057600080fd5b506040516113be3803806113be83398101604081905261002f91610078565b60008054600160a060020a03938416600160a060020a031991821617909155600180549290931691161790556100b2565b600160a060020a038116811461007557600080fd5b50565b6000806040838503121561008b57600080fd5b825161009681610060565b60208401519092506100a781610060565b809150509250929050565b6112fd806100c16000396000f3fe608060405234801561001057600080fd5b50600436106100865760e060020a600035046301402ccb811461008b5780631643a93d146100ba5780631c323c64146100cb578063673d7744146100e0578063712ac34c146100f3578063b5500a6c14610116578063c9d0ba8514610129578063eb04296f146100ba578063ff5864ad1461013c575b600080fd5b61009e610099366004610d35565b61014f565b6040516100b19796959493929190610daa565b60405180910390f35b6002546040519081526020016100b1565b6100de6100d9366004610e09565b6102b4565b005b6100de6100ee366004610d35565b6104d0565b610106610101366004610d35565b610701565b60405190151581526020016100b1565b610106610124366004610e55565b610794565b6100de610137366004610d35565b61086e565b6100de61014a366004610ef2565b610bc6565b606060008060008060008060006002898154811061016f5761016f610f93565b90600052602060002090600502016040518060a001604052908160008201805461019890610fad565b80601f01602080910402602001604051908101604052809291908181526020018280546101c490610fad565b80156102115780601f106101e657610100808354040283529160200191610211565b820191906000526020600020905b8154815290600101906020018083116101f457829003601f168201915b505050918352505060018201546020808301919091526002830154600160a060020a039081166040808501919091526003850154606085015260049485015490911660809093019290925260008d8152929052812054919250908190156102875750506000898152600460205260409020546001905b8251602084015160408501516060860151608090960151929e919d509b5093995097509095509350915050565b60015460405160e060020a63490882ed028152336004820152602481018490528215156044820152600160a060020a039091169063490882ed90606401600060405180830381600087803b15801561030b57600080fd5b505af115801561031f573d6000803e3d6000fd5b5060009250829150505b6002548110156103a95760005b60008281526003602052604090205481101561039657600082815260036020526040902080548691908390811061036f5761036f610f93565b90600052602060002001541415610384578192505b8061038e81611006565b915050610336565b50806103a181611006565b915050610329565b506000600160a060020a0316600282815481106103c8576103c8610f93565b6000918252602090912060046005909202010154600160a060020a0316148015610461575060015460405160e160020a6344990ead02815260048101859052600160a060020a03909116906389321d5a90602401602060405180830381865afa158015610439573d6000803e3d6000fd5b505050506040513d601f19601f8201168201806040525081019061045d9190611021565b6001145b156104cb5760008381526005602052604090205460028054600160a060020a03909216918390811061049557610495610f93565b906000526020600020906005020160040160006101000a815481600160a060020a030219169083600160a060020a031602179055505b505050565b6000805460405160e060020a635e57966d028152336004820152600160a060020a0390911690635e57966d90602401600060405180830381865afa15801561051c573d6000803e3d6000fd5b505050506040513d6000823e601f3d908101601f19168201604052610544919081019061103a565b6000805460405160e160020a637bb7ca87028152600481018690529293509091600160a060020a039091169063f76f950e90602401600060405180830381865afa158015610596573d6000803e3d6000fd5b505050506040513d6000823e601f3d908101601f191682016040526105be919081019061103a565b6001546000805460405160e060020a63211a42370281529394509092600160a060020a03928316926321a3a8bd92169063211a42379061060490889088906004016110b0565b600060405180830381865afa158015610621573d6000803e3d6000fd5b505050506040513d6000823e601f3d908101601f19168201604052610649919081019061103a565b610656426201518061116a565b605060006040518563ffffffff1660e060020a02815260040161067c9493929190611182565b6020604051808303816000875af115801561069b573d6000803e3d6000fd5b505050506040513d601f19601f820116820180604052508101906106bf9190611021565b6000948552600360209081526040808720805460018101825590885282882001839055918652600590529093208054600160a060020a03191633179055505050565b6000805b60025481101561078b5760005b60008281526003602052604090205481101561077857600082815260036020526040902080548591908390811061074b5761074b610f93565b90600052602060002001541415610766575060019392505050565b8061077081611006565b915050610712565b508061078381611006565b915050610705565b50600092915050565b6000828152600360209081526040808320805482518185028101850190935280835284938301828280156107e757602002820191906000526020600020905b8154815260200190600101908083116107d3575b5050505050905060005b81518110156108615783600160a060020a03166005600084848151811061081a5761081a610f93565b602090810291909101810151825281019190915260400160002054600160a060020a0316141561084f57600192505050610868565b8061085981611006565b9150506107f1565b5060009150505b92915050565b6000805460405160e160020a637bb7ca8702815260048101849052600160a060020a039091169063f76f950e90602401600060405180830381865afa1580156108bb573d6000803e3d6000fd5b505050506040513d6000823e601f3d908101601f191682016040526108e3919081019061103a565b600083815260046020526040812054919250901561099057600080548482526004602052604090912054600160a060020a0390911690637af3f80d9061092b906001906111b1565b6040518263ffffffff1660e060020a02815260040161094c91815260200190565b602060405180830381865afa158015610969573d6000803e3d6000fd5b505050506040513d601f19601f8201168201806040525081019061098d91906111c8565b90505b600283815481106109a3576109a3610f93565b6000918252602090912060059091020160040154600160a060020a0316331480156109cc575080155b156104cb5760005460028054600160a060020a039092169163f87009d29190869081106109fb576109fb610f93565b906000526020600020906005020160020160009054906101000a9004600160a060020a031660028681548110610a3357610a33610f93565b6000918252602082206004600590920201810154915460405160e060020a63211a4237028152600160a060020a0393841693919091169163211a423791610a7c918a91016111ec565b600060405180830381865afa158015610a99573d6000803e3d6000fd5b505050506040513d6000823e601f3d908101601f19168201604052610ac1919081019061103a565b60028881548110610ad457610ad4610f93565b9060005260206000209060050201600301546040518563ffffffff1660e060020a028152600401610b08949392919061128a565b600060405180830381600087803b158015610b2257600080fd5b505af1158015610b36573d6000803e3d6000fd5b5050505060008054906101000a9004600160a060020a0316600160a060020a0316631c00dd8e6040518163ffffffff1660e060020a028152600401602060405180830381865afa158015610b8e573d6000803e3d6000fd5b505050506040513d601f19601f82011682018060405250810190610bb29190611021565b600084815260046020526040902055505050565b6040805160a0810182528581526020808201869052600160a060020a0385169282019290925260608101839052600060808201819052600280546001810182559152815180519293849360059093027f405787fa12a823e0f2b7631cc41b3ba8828b3321ca811111fa75cd3aa3bb5ace0192610c459284920190610c9c565b50602082015160018201556040820151600282018054600160a060020a0319908116600160a060020a0393841617909155606084015160038401556080909301516004909201805490931691161790555050505050565b828054610ca890610fad565b90600052602060002090601f016020900481019282610cca5760008555610d10565b82601f10610ce357805160ff1916838001178555610d10565b82800160010185558215610d10579182015b82811115610d10578251825591602001919060010190610cf5565b50610d1c929150610d20565b5090565b5b80821115610d1c5760008155600101610d21565b600060208284031215610d4757600080fd5b5035919050565b60005b83811015610d69578181015183820152602001610d51565b83811115610d78576000848401525b50505050565b60008151808452610d96816020860160208601610d4e565b601f01601f19169290920160200192915050565b60e081526000610dbd60e083018a610d7e565b602083019890985250600160a060020a039586166040820152606081019490945291909316608083015291151560a082015260c00152919050565b8015158114610e0657600080fd5b50565b60008060408385031215610e1c57600080fd5b823591506020830135610e2e81610df8565b809150509250929050565b8035600160a060020a0381168114610e5057600080fd5b919050565b60008060408385031215610e6857600080fd5b82359150610e7860208401610e39565b90509250929050565b60e060020a634e487b710260009081526041600452602490fd5b604051601f8201601f191681016001604060020a0381118282101715610ec357610ec3610e81565b604052919050565b60006001604060020a03821115610ee457610ee4610e81565b50601f01601f191660200190565b60008060008060808587031215610f0857600080fd5b84356001604060020a03811115610f1e57600080fd5b8501601f81018713610f2f57600080fd5b8035610f42610f3d82610ecb565b610e9b565b818152886020838501011115610f5757600080fd5b8160208401602083013760006020838301015280965050505060208501359250610f8360408601610e39565b9396929550929360600135925050565b60e060020a634e487b710260009081526032600452602490fd5b600281046001821680610fc157607f821691505b60208210811415610fe65760e060020a634e487b710260009081526022600452602490fd5b50919050565b60e060020a634e487b710260009081526011600452602490fd5b600060001982141561101a5761101a610fec565b5060010190565b60006020828403121561103357600080fd5b5051919050565b60006020828403121561104c57600080fd5b81516001604060020a0381111561106257600080fd5b8201601f8101841361107357600080fd5b8051611081610f3d82610ecb565b81815285602083850101111561109657600080fd5b6110a7826020830160208601610d4e565b95945050505050565b60e08152600860e082015260c560020a67020b8383937bb3290261010082015260006101208060208401526110e781840186610d7e565b905082810380604085015260108252608060020a6f20746f2066696e697368207461736b23026020830152604081016060850152506111296040820185610d7e565b9050828103806080850152600082526020810160a085015250611153602082016000815260200190565b83810360c0850152600081529050602081016110a7565b6000821982111561117d5761117d610fec565b500190565b6080815260006111956080830187610d7e565b6020830195909552506040810192909252606090910152919050565b6000828210156111c3576111c3610fec565b500390565b6000602082840312156111da57600080fd5b81516111e581610df8565b9392505050565b60e08152601260e0820152607060020a717265776172647320666f72207461736b202302610100820152600061012080602084015261122d81840185610d7e565b90508281038060408501526000825260208101606085015260006020830152604081016080850152600060408301526060810160a0850152600060608301526080810160c0850152506000608082015260a0810191505092915050565b600160a060020a038581168252841660208201526080604082018190526000906112b690830185610d7e565b90508260608301529594505050505056fea2646970667358221220bbc57894c4e40369dd78a20ba1304196a5aba85ec8157c5dc512406c6e2650ce64736f6c634300080a0033",
  "immutableReferences": {},
  "source": "// SPDX-License-Identifier: MIT\npragma solidity >=0.4.22 <0.9.0;\nimport \"./Voting.sol\";\nimport \"./Finance.sol\";\n\ncontract Roadmap{\n    Finance f;\n    Voting v;\n\n    constructor(Finance _f, Voting _v){\n        f =  _f;\n        v =  _v;\n    }\n    struct task{\n        string content;\n        uint256 quater;\n        address token;\n        uint256 rewards;\n        address worker;\n    }\n\n    task[] T;\n    mapping(uint256 => uint256[]) T_V;\n    mapping(uint256 => uint256) T_F;\n    mapping(uint256 => address) WorkerInVote;\n\n\n    function create_task(string memory _content, uint256 _quater, address _token, uint256 _rewards) public {\n        task memory t = task(_content, _quater, _token, _rewards, address(0));\n        T.push(t);\n    }\n\n    function task_len() public view returns(uint256){\n        return T.length;\n    }\n\n    function apply_(uint256 _id) external {\n        string memory me = f.addressToString(msg.sender);\n        string memory id = f.uint2str(_id);\n        uint256 voteId = v.create_vote(f.append(\"Approve \", me, \" to finish task#\", id,\"\",\"\",\"\"), block.timestamp+86400, 80, 0);\n        T_V[_id].push(voteId);\n        WorkerInVote[voteId] = msg.sender;\n    }\n\n    function task_vote(uint256 voteId, bool support) external {\n        v.withdraw_vote(msg.sender, voteId, support);\n        uint256 taskId;\n        for(uint256 i=0; i<T.length; i++){\n            for(uint256 j=0; j<T_V[i].length; j++){\n                if(T_V[i][j] == voteId){\n                    taskId = i;\n                }\n            }\n        }\n        if(T[taskId].worker == address(0) && v.vote_is_apporved(voteId) == 1){\n            T[taskId].worker = WorkerInVote[voteId];\n        }\n\n    }\n\n    function is_task_vote(uint256 _voteId) public view returns(bool) {\n        for(uint i=0; i<T.length; i++){\n            for(uint j=0; j<T_V[i].length; j++){\n                if(T_V[i][j] == _voteId){\n                    return true;\n                }\n            }\n        }\n        return false; \n    }\n\n\n    function is_applied(uint256 taskId, address caller) public view returns(bool){\n        uint256[] memory votes = T_V[taskId];\n        for(uint i=0; i<votes.length; i++){\n            if(WorkerInVote[votes[i]] == caller){\n                return true;\n            }\n        }\n        return false;\n    }\n\n    function claim_reward(uint256 taskId) external {\n        string memory id = f.uint2str(taskId);\n        bool is_Rewarded = false;\n        if(T_F[taskId] != 0){\n            is_Rewarded = f.is_transfered(T_F[taskId]-1);\n        }\n        if(msg.sender == T[taskId].worker && !is_Rewarded){\n            f.withdraw(T[taskId].token, T[taskId].worker, f.append(\"rewards for task #\",id,\"\",\"\",\"\",\"\",\"\"),T[taskId].rewards);\n            T_F[taskId] = f.get_transfer_length();\n        }\n    }\n\n\n    function get_task_len() public view returns(uint256){\n        return T.length;\n    }\n\n    function get_task(uint256 id) public view returns(string memory, uint256, address, uint256, address, bool, uint256) {\n        task memory t = T[id];\n        bool is_clamined = false;\n        uint256 transferId = 0;\n        if(T_F[id] != 0){\n            is_clamined = true;\n            transferId = T_F[id];\n        }\n        return (t.content, t.quater, t.token, t.rewards, t.worker, is_clamined, transferId);\n    }\n\n    // function ooo() public {\n    //     T_V[0].push(3);\n    // }\n\n    // function okok() public view returns(uint256){\n    //     return T_V[0][0];\n    // }\n\n\n}",
  "sourcePath": "/Users/shiqianghan/Desktop/CS310 Project DAO/code/truffle/contracts/Roadmap.sol",
  "compiler": {
    "name": "solc",
    "version": "0.8.10+commit.fc410830.Emscripten.clang"
  },
  "schemaVersion": "3.4.4",
  "updatedAt": "2022-03-13T16:06:05.975Z",
  "devdoc": {
    "kind": "dev",
    "methods": {},
    "version": 1
  },
  "userdoc": {
    "kind": "user",
    "methods": {},
    "version": 1
  }
}