{
  "contractName": "Token",
  "abi": [
    {
      "inputs": [
        {
          "internalType": "string",
          "name": "name",
          "type": "string"
        },
        {
          "internalType": "string",
          "name": "symbol",
          "type": "string"
        }
      ],
      "stateMutability": "nonpayable",
      "type": "constructor"
    },
    {
      "anonymous": false,
      "inputs": [
        {
          "indexed": true,
          "internalType": "address",
          "name": "owner",
          "type": "address"
        },
        {
          "indexed": true,
          "internalType": "address",
          "name": "spender",
          "type": "address"
        },
        {
          "indexed": false,
          "internalType": "uint256",
          "name": "value",
          "type": "uint256"
        }
      ],
      "name": "Approval",
      "type": "event"
    },
    {
      "anonymous": false,
      "inputs": [
        {
          "indexed": true,
          "internalType": "address",
          "name": "from",
          "type": "address"
        },
        {
          "indexed": true,
          "internalType": "address",
          "name": "to",
          "type": "address"
        },
        {
          "indexed": false,
          "internalType": "uint256",
          "name": "value",
          "type": "uint256"
        }
      ],
      "name": "Transfer",
      "type": "event"
    },
    {
      "inputs": [
        {
          "internalType": "address",
          "name": "owner",
          "type": "address"
        },
        {
          "internalType": "address",
          "name": "spender",
          "type": "address"
        }
      ],
      "name": "allowance",
      "outputs": [
        {
          "internalType": "uint256",
          "name": "",
          "type": "uint256"
        }
      ],
      "stateMutability": "view",
      "type": "function",
      "constant": true
    },
    {
      "inputs": [
        {
          "internalType": "address",
          "name": "spender",
          "type": "address"
        },
        {
          "internalType": "uint256",
          "name": "amount",
          "type": "uint256"
        }
      ],
      "name": "approve",
      "outputs": [
        {
          "internalType": "bool",
          "name": "",
          "type": "bool"
        }
      ],
      "stateMutability": "nonpayable",
      "type": "function"
    },
    {
      "inputs": [
        {
          "internalType": "address",
          "name": "account",
          "type": "address"
        }
      ],
      "name": "balanceOf",
      "outputs": [
        {
          "internalType": "uint256",
          "name": "",
          "type": "uint256"
        }
      ],
      "stateMutability": "view",
      "type": "function",
      "constant": true
    },
    {
      "inputs": [],
      "name": "decimals",
      "outputs": [
        {
          "internalType": "uint8",
          "name": "",
          "type": "uint8"
        }
      ],
      "stateMutability": "view",
      "type": "function",
      "constant": true
    },
    {
      "inputs": [
        {
          "internalType": "address",
          "name": "spender",
          "type": "address"
        },
        {
          "internalType": "uint256",
          "name": "subtractedValue",
          "type": "uint256"
        }
      ],
      "name": "decreaseAllowance",
      "outputs": [
        {
          "internalType": "bool",
          "name": "",
          "type": "bool"
        }
      ],
      "stateMutability": "nonpayable",
      "type": "function"
    },
    {
      "inputs": [
        {
          "internalType": "address",
          "name": "spender",
          "type": "address"
        },
        {
          "internalType": "uint256",
          "name": "addedValue",
          "type": "uint256"
        }
      ],
      "name": "increaseAllowance",
      "outputs": [
        {
          "internalType": "bool",
          "name": "",
          "type": "bool"
        }
      ],
      "stateMutability": "nonpayable",
      "type": "function"
    },
    {
      "inputs": [],
      "name": "name",
      "outputs": [
        {
          "internalType": "string",
          "name": "",
          "type": "string"
        }
      ],
      "stateMutability": "view",
      "type": "function",
      "constant": true
    },
    {
      "inputs": [],
      "name": "symbol",
      "outputs": [
        {
          "internalType": "string",
          "name": "",
          "type": "string"
        }
      ],
      "stateMutability": "view",
      "type": "function",
      "constant": true
    },
    {
      "inputs": [],
      "name": "totalSupply",
      "outputs": [
        {
          "internalType": "uint256",
          "name": "",
          "type": "uint256"
        }
      ],
      "stateMutability": "view",
      "type": "function",
      "constant": true
    },
    {
      "inputs": [
        {
          "internalType": "address",
          "name": "to",
          "type": "address"
        },
        {
          "internalType": "uint256",
          "name": "amount",
          "type": "uint256"
        }
      ],
      "name": "transfer",
      "outputs": [
        {
          "internalType": "bool",
          "name": "",
          "type": "bool"
        }
      ],
      "stateMutability": "nonpayable",
      "type": "function"
    },
    {
      "inputs": [
        {
          "internalType": "address",
          "name": "from",
          "type": "address"
        },
        {
          "internalType": "address",
          "name": "to",
          "type": "address"
        },
        {
          "internalType": "uint256",
          "name": "amount",
          "type": "uint256"
        }
      ],
      "name": "transferFrom",
      "outputs": [
        {
          "internalType": "bool",
          "name": "",
          "type": "bool"
        }
      ],
      "stateMutability": "nonpayable",
      "type": "function"
    },
    {
      "inputs": [
        {
          "internalType": "address",
          "name": "owner",
          "type": "address"
        },
        {
          "internalType": "uint256",
          "name": "amount",
          "type": "uint256"
        }
      ],
      "name": "mint",
      "outputs": [],
      "stateMutability": "nonpayable",
      "type": "function"
    },
    {
      "inputs": [
        {
          "internalType": "address",
          "name": "owner",
          "type": "address"
        },
        {
          "internalType": "uint256",
          "name": "amount",
          "type": "uint256"
        }
      ],
      "name": "burn",
      "outputs": [],
      "stateMutability": "nonpayable",
      "type": "function"
    },
    {
      "inputs": [],
      "name": "_get_holder",
      "outputs": [
        {
          "internalType": "address[]",
          "name": "",
          "type": "address[]"
        }
      ],
      "stateMutability": "view",
      "type": "function",
      "constant": true
    },
    {
      "inputs": [],
      "name": "_get_balance",
      "outputs": [
        {
          "internalType": "uint256[]",
          "name": "",
          "type": "uint256[]"
        }
      ],
      "stateMutability": "view",
      "type": "function",
      "constant": true
    }
  ],
  "bytecode": "0x60806040523480156200001157600080fd5b5060405162001117380380620011178339810160408190526200003491620001fa565b8151829082906200004d9060039060208501906200006e565b508051620000639060049060208401906200006e565b5050505050620002ba565b8280546200007c9062000264565b90600052602060002090601f016020900481019282620000a05760008555620000eb565b82601f10620000bb57805160ff1916838001178555620000eb565b82800160010185558215620000eb579182015b82811115620000eb578251825591602001919060010190620000ce565b50620000f9929150620000fd565b5090565b5b80821115620000f95760008155600101620000fe565b7f4e487b7100000000000000000000000000000000000000000000000000000000600052604160045260246000fd5b600082601f8301126200015557600080fd5b81516001604060020a038082111562000172576200017262000114565b604051601f8301601f19908116603f011681019082821181831017156200019d576200019d62000114565b81604052838152602092508683858801011115620001ba57600080fd5b600091505b83821015620001de5785820183015181830184015290820190620001bf565b83821115620001f05760008385830101525b9695505050505050565b600080604083850312156200020e57600080fd5b82516001604060020a03808211156200022657600080fd5b620002348683870162000143565b935060208501519150808211156200024b57600080fd5b506200025a8582860162000143565b9150509250929050565b6002810460018216806200027957607f821691505b60208210811415620002b4577f4e487b7100000000000000000000000000000000000000000000000000000000600052602260045260246000fd5b50919050565b610e4d80620002ca6000396000f3fe608060405234801561001057600080fd5b50600436106100c85760e060020a600035046306fdde0381146100cd578063095ea7b3146100eb57806318160ddd1461010e57806323b872dd14610120578063313ce56714610133578063395093511461014257806340c10f191461015557806370a082311461016a57806395d89b411461017d5780639dc29fac146101855780639ff9bc8914610198578063a457c2d7146101ad578063a9059cbb146101c0578063bad6eb85146101d3578063dd62ed3e146101e8575b600080fd5b6100d56101fb565b6040516100e29190610b75565b60405180910390f35b6100fe6100f9366004610be6565b61028d565b60405190151581526020016100e2565b6002545b6040519081526020016100e2565b6100fe61012e366004610c10565b6102a5565b604051601281526020016100e2565b6100fe610150366004610be6565b6102c9565b610168610163366004610be6565b610308565b005b610112610178366004610c4c565b6103bc565b6100d56103d7565b610168610193366004610be6565b6103e6565b6101a06103f4565b6040516100e29190610c6e565b6100fe6101bb366004610be6565b610455565b6100fe6101ce366004610be6565b6104f2565b6101db610500565b6040516100e29190610cbb565b6101126101f6366004610cf3565b6105be565b60606003805461020a90610d26565b80601f016020809104026020016040519081016040528092919081815260200182805461023690610d26565b80156102835780601f1061025857610100808354040283529160200191610283565b820191906000526020600020905b81548152906001019060200180831161026657829003601f168201915b5050505050905090565b60003361029b8185856105e9565b5060019392505050565b6000336102b385828561071a565b6102be858585610797565b506001949350505050565b336000818152600160209081526040808320600160a060020a038716845290915281205490919061029b9082908690610303908790610d79565b6105e9565b6103128282610965565b60005b600554811015610368576005818154811061033257610332610d91565b600091825260209091200154600160a060020a038481169116141561035657505050565b8061036081610dab565b915050610315565b5050600580546001810182556000919091527f036b6384b5eca791c62761152d0c79bb0604c104a5fb6f4eb0703f3154bb3db0018054600160a060020a031916600160a060020a0392909216919091179055565b600160a060020a031660009081526020819052604090205490565b60606004805461020a90610d26565b6103f08282610a35565b5050565b6060600580548060200260200160405190810160405280929190818152602001828054801561028357602002820191906000526020600020905b8154600160a060020a0316815260019091019060200180831161042e575050505050905090565b336000818152600160209081526040808320600160a060020a0387168452909152812054909190838110156104e55760405160e560020a62461bcd02815260206004820152602560248201527f45524332303a2064656372656173656420616c6c6f77616e63652062656c6f77604482015260d860020a64207a65726f0260648201526084015b60405180910390fd5b6102be82868684036105e9565b60003361029b818585610797565b6005546060906000906001604060020a0381111561052057610520610dc6565b604051908082528060200260200182016040528015610549578160200160208202803683370190505b50905060005b6005548110156105b8576105896005828154811061056f5761056f610d91565b600091825260209091200154600160a060020a03166103bc565b82828151811061059b5761059b610d91565b6020908102919091010152806105b081610dab565b91505061054f565b50919050565b600160a060020a03918216600090815260016020908152604080832093909416825291909152205490565b600160a060020a0383166106515760405160e560020a62461bcd028152602060048201526024808201527f45524332303a20617070726f76652066726f6d20746865207a65726f20616464604482015260e060020a63726573730260648201526084016104dc565b600160a060020a0382166106b85760405160e560020a62461bcd02815260206004820152602260248201527f45524332303a20617070726f766520746f20746865207a65726f206164647265604482015260f060020a6173730260648201526084016104dc565b600160a060020a0383811660008181526001602090815260408083209487168084529482529182902085905590518481527f8c5be1e5ebec7d5bd14f71427d1e84f3dd0314c0f7b2291e5b200ac8c7c3b92591015b60405180910390a3505050565b600061072684846105be565b9050600019811461079157818110156107845760405160e560020a62461bcd02815260206004820152601d60248201527f45524332303a20696e73756666696369656e7420616c6c6f77616e636500000060448201526064016104dc565b61079184848484036105e9565b50505050565b600160a060020a0383166108015760405160e560020a62461bcd02815260206004820152602560248201527f45524332303a207472616e736665722066726f6d20746865207a65726f206164604482015260d860020a6464726573730260648201526084016104dc565b600160a060020a0382166108695760405160e560020a62461bcd02815260206004820152602360248201527f45524332303a207472616e7366657220746f20746865207a65726f2061646472604482015260e860020a626573730260648201526084016104dc565b600160a060020a038316600090815260208190526040902054818110156108e75760405160e560020a62461bcd02815260206004820152602660248201527f45524332303a207472616e7366657220616d6f756e7420657863656564732062604482015260d060020a65616c616e63650260648201526084016104dc565b600160a060020a0380851660009081526020819052604080822085850390559185168152908120805484929061091e908490610d79565b9250508190555082600160a060020a031684600160a060020a0316600080516020610df88339815191528460405161095891815260200190565b60405180910390a3610791565b600160a060020a0382166109be5760405160e560020a62461bcd02815260206004820152601f60248201527f45524332303a206d696e7420746f20746865207a65726f20616464726573730060448201526064016104dc565b80600260008282546109d09190610d79565b9091555050600160a060020a038216600090815260208190526040812080548392906109fd908490610d79565b9091555050604051818152600160a060020a03831690600090600080516020610df88339815191529060200160405180910390a35050565b600160a060020a038216610a9b5760405160e560020a62461bcd02815260206004820152602160248201527f45524332303a206275726e2066726f6d20746865207a65726f20616464726573604482015260f860020a60730260648201526084016104dc565b600160a060020a03821660009081526020819052604090205481811015610b155760405160e560020a62461bcd02815260206004820152602260248201527f45524332303a206275726e20616d6f756e7420657863656564732062616c616e604482015260f060020a6163650260648201526084016104dc565b600160a060020a0383166000908152602081905260408120838303905560028054849290610b44908490610de0565b9091555050604051828152600090600160a060020a03851690600080516020610df88339815191529060200161070d565b600060208083528351808285015260005b81811015610ba257858101830151858201604001528201610b86565b81811115610bb4576000604083870101525b50601f01601f1916929092016040019392505050565b8035600160a060020a0381168114610be157600080fd5b919050565b60008060408385031215610bf957600080fd5b610c0283610bca565b946020939093013593505050565b600080600060608486031215610c2557600080fd5b610c2e84610bca565b9250610c3c60208501610bca565b9150604084013590509250925092565b600060208284031215610c5e57600080fd5b610c6782610bca565b9392505050565b6020808252825182820181905260009190848201906040850190845b81811015610caf578351600160a060020a031683529284019291840191600101610c8a565b50909695505050505050565b6020808252825182820181905260009190848201906040850190845b81811015610caf57835183529284019291840191600101610cd7565b60008060408385031215610d0657600080fd5b610d0f83610bca565b9150610d1d60208401610bca565b90509250929050565b600281046001821680610d3a57607f821691505b602082108114156105b85760e060020a634e487b710260009081526022600452602490fd5b60e060020a634e487b710260009081526011600452602490fd5b60008219821115610d8c57610d8c610d5f565b500190565b60e060020a634e487b710260009081526032600452602490fd5b6000600019821415610dbf57610dbf610d5f565b5060010190565b60e060020a634e487b710260009081526041600452602490fd5b600082821015610df257610df2610d5f565b50039056feddf252ad1be2c89b69c2b068fc378daa952ba7f163c4a11628f55a4df523b3efa2646970667358221220de0e0c2921b4f8475a608cf7a42d0846fa176ed86ff2c21d4c948a7435d98a6a64736f6c634300080a0033",
  "immutableReferences": {},
  "source": "// SPDX-License-Identifier: MIT\npragma solidity >=0.4.22 <0.9.0;\n\nimport \"@openzeppelin/contracts/token/ERC20/ERC20.sol\";\n\ncontract Token is ERC20{\n    address[] holder;\n    constructor(string memory name, string memory symbol) ERC20(name, symbol) {\n\n    }\n\n    function mint(address owner, uint256 amount) public {\n        _mint(owner, amount);\n        for(uint i=0; i<holder.length; i++){\n            if(owner == holder[i]){\n                return;\n            }\n        }\n        holder.push(owner);\n    }\n\n    function burn(address owner, uint256 amount) public {\n        _burn(owner, amount);\n    }\n\n    function _get_holder() public view returns(address[] memory){\n        return holder;\n    } \n\n    function _get_balance() public view returns(uint256[] memory){\n        uint256[] memory balance = new uint256[](holder.length);\n        \n        for(uint i=0; i<holder.length; i++){\n            balance[i] = balanceOf(holder[i]);\n        }\n        return balance;\n    }\n\n    // function Mint(address owner, uint256 amount) public {\n    //     _mint(owner, amount);\n    //     approve(owner, amount);\n    //     for(uint i=0; i<holder.length; i++){\n    //         if(owner == holder[i]){\n    //             return;\n    //         }\n    //     }\n    //     holder.push(owner);\n    // } \n\n    // function TransferFrom(address from, address to, uint256 amount) public {\n    //     transferFrom(from, to, amount);\n    //     approve(to, amount);\n\n    //     for(uint i=0; i<holder.length; i++){\n    //        if(to == holder[i]){\n    //             return;\n    //         }\n    //     }\n    //     holder.push(to);\n    // }\n}",
  "sourcePath": "/Users/shiqianghan/Desktop/CS310 Project DAO/code/truffle/contracts/Token.sol",
  "compiler": {
    "name": "solc",
    "version": "0.8.10+commit.fc410830.Emscripten.clang"
  },
  "schemaVersion": "3.4.4",
  "updatedAt": "2022-03-17T13:23:55.249Z",
  "networkType": "ethereum",
  "devdoc": {
    "kind": "dev",
    "methods": {
      "allowance(address,address)": {
        "details": "See {IERC20-allowance}."
      },
      "approve(address,uint256)": {
        "details": "See {IERC20-approve}. NOTE: If `amount` is the maximum `uint256`, the allowance is not updated on `transferFrom`. This is semantically equivalent to an infinite approval. Requirements: - `spender` cannot be the zero address."
      },
      "balanceOf(address)": {
        "details": "See {IERC20-balanceOf}."
      },
      "decimals()": {
        "details": "Returns the number of decimals used to get its user representation. For example, if `decimals` equals `2`, a balance of `505` tokens should be displayed to a user as `5.05` (`505 / 10 ** 2`). Tokens usually opt for a value of 18, imitating the relationship between Ether and Wei. This is the value {ERC20} uses, unless this function is overridden; NOTE: This information is only used for _display_ purposes: it in no way affects any of the arithmetic of the contract, including {IERC20-balanceOf} and {IERC20-transfer}."
      },
      "decreaseAllowance(address,uint256)": {
        "details": "Atomically decreases the allowance granted to `spender` by the caller. This is an alternative to {approve} that can be used as a mitigation for problems described in {IERC20-approve}. Emits an {Approval} event indicating the updated allowance. Requirements: - `spender` cannot be the zero address. - `spender` must have allowance for the caller of at least `subtractedValue`."
      },
      "increaseAllowance(address,uint256)": {
        "details": "Atomically increases the allowance granted to `spender` by the caller. This is an alternative to {approve} that can be used as a mitigation for problems described in {IERC20-approve}. Emits an {Approval} event indicating the updated allowance. Requirements: - `spender` cannot be the zero address."
      },
      "name()": {
        "details": "Returns the name of the token."
      },
      "symbol()": {
        "details": "Returns the symbol of the token, usually a shorter version of the name."
      },
      "totalSupply()": {
        "details": "See {IERC20-totalSupply}."
      },
      "transfer(address,uint256)": {
        "details": "See {IERC20-transfer}. Requirements: - `to` cannot be the zero address. - the caller must have a balance of at least `amount`."
      },
      "transferFrom(address,address,uint256)": {
        "details": "See {IERC20-transferFrom}. Emits an {Approval} event indicating the updated allowance. This is not required by the EIP. See the note at the beginning of {ERC20}. NOTE: Does not update the allowance if the current allowance is the maximum `uint256`. Requirements: - `from` and `to` cannot be the zero address. - `from` must have a balance of at least `amount`. - the caller must have allowance for ``from``'s tokens of at least `amount`."
      }
    },
    "version": 1
  },
  "userdoc": {
    "kind": "user",
    "methods": {},
    "version": 1
  }
}