{
  "contractName": "Voting",
  "abi": [
    {
      "inputs": [
        {
          "internalType": "contract Token",
          "name": "tok",
          "type": "address"
        }
      ],
      "stateMutability": "nonpayable",
      "type": "constructor"
    },
    {
      "anonymous": false,
      "inputs": [
        {
          "indexed": false,
          "internalType": "address",
          "name": "voter",
          "type": "address"
        },
        {
          "indexed": false,
          "internalType": "uint256",
          "name": "voteId",
          "type": "uint256"
        },
        {
          "indexed": false,
          "internalType": "uint256",
          "name": "status",
          "type": "uint256"
        }
      ],
      "name": "Voter_Status",
      "type": "event"
    },
    {
      "inputs": [],
      "name": "votes_length",
      "outputs": [
        {
          "internalType": "uint256",
          "name": "",
          "type": "uint256"
        }
      ],
      "stateMutability": "view",
      "type": "function"
    },
    {
      "inputs": [
        {
          "internalType": "string",
          "name": "content",
          "type": "string"
        },
        {
          "internalType": "uint256",
          "name": "endDate",
          "type": "uint256"
        },
        {
          "internalType": "uint256",
          "name": "approvalPct",
          "type": "uint256"
        },
        {
          "internalType": "uint256",
          "name": "vote_method",
          "type": "uint256"
        }
      ],
      "name": "create_vote",
      "outputs": [
        {
          "internalType": "uint256",
          "name": "",
          "type": "uint256"
        }
      ],
      "stateMutability": "nonpayable",
      "type": "function"
    },
    {
      "inputs": [
        {
          "internalType": "uint256",
          "name": "voteId",
          "type": "uint256"
        },
        {
          "internalType": "bool",
          "name": "support",
          "type": "bool"
        }
      ],
      "name": "take_vote",
      "outputs": [],
      "stateMutability": "nonpayable",
      "type": "function"
    },
    {
      "inputs": [
        {
          "internalType": "address",
          "name": "voter",
          "type": "address"
        },
        {
          "internalType": "uint256",
          "name": "voteId",
          "type": "uint256"
        },
        {
          "internalType": "bool",
          "name": "support",
          "type": "bool"
        }
      ],
      "name": "withdraw_vote",
      "outputs": [],
      "stateMutability": "nonpayable",
      "type": "function"
    },
    {
      "inputs": [
        {
          "internalType": "uint256",
          "name": "voteId",
          "type": "uint256"
        }
      ],
      "name": "vote_is_open",
      "outputs": [
        {
          "internalType": "bool",
          "name": "",
          "type": "bool"
        }
      ],
      "stateMutability": "view",
      "type": "function"
    },
    {
      "inputs": [
        {
          "internalType": "uint256",
          "name": "voteId",
          "type": "uint256"
        }
      ],
      "name": "vote_yes_progress",
      "outputs": [
        {
          "internalType": "uint256",
          "name": "",
          "type": "uint256"
        }
      ],
      "stateMutability": "view",
      "type": "function"
    },
    {
      "inputs": [
        {
          "internalType": "uint256",
          "name": "voteId",
          "type": "uint256"
        }
      ],
      "name": "vote_no_progress",
      "outputs": [
        {
          "internalType": "uint256",
          "name": "",
          "type": "uint256"
        }
      ],
      "stateMutability": "view",
      "type": "function"
    },
    {
      "inputs": [
        {
          "internalType": "uint256",
          "name": "voteId",
          "type": "uint256"
        }
      ],
      "name": "vote_is_apporved",
      "outputs": [
        {
          "internalType": "uint256",
          "name": "",
          "type": "uint256"
        }
      ],
      "stateMutability": "view",
      "type": "function"
    },
    {
      "inputs": [],
      "name": "time",
      "outputs": [
        {
          "internalType": "uint256",
          "name": "",
          "type": "uint256"
        }
      ],
      "stateMutability": "view",
      "type": "function"
    },
    {
      "inputs": [
        {
          "internalType": "address",
          "name": "voter",
          "type": "address"
        },
        {
          "internalType": "uint256",
          "name": "voteId",
          "type": "uint256"
        }
      ],
      "name": "get_votings",
      "outputs": [
        {
          "internalType": "string",
          "name": "",
          "type": "string"
        },
        {
          "internalType": "uint256",
          "name": "",
          "type": "uint256"
        },
        {
          "internalType": "uint256",
          "name": "",
          "type": "uint256"
        },
        {
          "internalType": "uint256",
          "name": "",
          "type": "uint256"
        },
        {
          "internalType": "uint256",
          "name": "",
          "type": "uint256"
        },
        {
          "internalType": "uint256",
          "name": "",
          "type": "uint256"
        }
      ],
      "stateMutability": "view",
      "type": "function"
    },
    {
      "inputs": [
        {
          "internalType": "uint256",
          "name": "voteId",
          "type": "uint256"
        }
      ],
      "name": "get_votings2",
      "outputs": [
        {
          "internalType": "uint256",
          "name": "",
          "type": "uint256"
        },
        {
          "internalType": "uint256",
          "name": "",
          "type": "uint256"
        },
        {
          "internalType": "uint256",
          "name": "",
          "type": "uint256"
        }
      ],
      "stateMutability": "view",
      "type": "function"
    }
  ],
  "bytecode": "0x608060405234801561001057600080fd5b50604051610ece380380610ece83398101604081905261002f91610054565b60008054600160a060020a031916600160a060020a0392909216919091179055610084565b60006020828403121561006657600080fd5b8151600160a060020a038116811461007d57600080fd5b9392505050565b610e3b806100936000396000f3fe608060405234801561001057600080fd5b506004361061009c5760e060020a6000350463100d90e381146100a157806316ada547146100cf57806321a3a8bd146100df578063490882ed146100f257806356b8623c1461010757806369dd0e661461011057806372a500541461012357806389321d5a1461016e578063bc70361114610181578063c724dc4514610194578063d92f63ab146101a7575b600080fd5b6100b46100af3660046109d6565b6101dd565b6040516100c696959493929190610a02565b60405180910390f35b425b6040519081526020016100c6565b6100d16100ed366004610ac2565b610330565b610105610100366004610b7d565b610347565b005b6100d160025481565b6100d161011e366004610bbb565b610527565b610153610131366004610bbb565b6000908152600160205260409020600381015460048201546006909201549092565b604080519384526020840192909252908201526060016100c6565b6100d161017c366004610bbb565b61055b565b6100d161018f366004610bbb565b6105c4565b6101056101a2366004610bd4565b6105e8565b6101cd6101b5366004610bbb565b60009081526001602081905260409091200154421090565b60405190151581526020016100c6565b606060008060008060008060016000898152602001908152602001600020600001805461020990610c00565b80601f016020809104026020016040519081016040528092919081815260200182805461023590610c00565b80156102825780601f1061025757610100808354040283529160200191610282565b820191906000526020600020905b81548152906001019060200180831161026557829003601f168201915b50505060008b815260016020819052604082209081015460029091015494955093925090506102b08b610527565b905060006102bd8c6105c4565b90506000600160008e815260200190815260200160002060070160008f600160a060020a0316600160a060020a0316815260200190815260200160002060009054906101000a900460ff16600281111561031957610319610c3f565b959e949d50929b5090995097509195509350505050565b600061033e858585856107b3565b95945050505050565b80156104455760005460405160e060020a6370a082310281526103db91600160a060020a0316906370a0823190610382908790600401610c59565b602060405180830381865afa15801561039f573d6000803e3d6000fd5b505050506040513d601f19601f820116820180604052508101906103c39190610c6d565b60008481526001602052604090206003015490610912565b60008381526001602081815260408084206003810195909555600160a060020a038816845260079094019052919020805460ff191682179055600080516020610de683398151915290849084905b60405161043893929190610c86565b60405180910390a1505050565b60005460405160e060020a6370a082310281526104d391600160a060020a0316906370a082319061047a908790600401610c59565b602060405180830381865afa158015610497573d6000803e3d6000fd5b505050506040513d601f19601f820116820180604052508101906104bb9190610c6d565b60008481526001602052604090206004015490610912565b60008381526001602090815260408083206004810194909455600160a060020a03871683526007909301905220805460ff19166002908117909155600080516020610de68339815191529084908490610429565b6000818152600160205260408120600581015460039091015461054b906064610cc1565b6105559190610ce0565b92915050565b60008181526001602052604081206002015461057683610527565b1061058357506001919050565b6000828152600160205260409020600201546105a0906064610d06565b6105a9836105c4565b11156105b757506000919050565b506002919050565b919050565b6000818152600160205260408120600581015460049091015461054b906064610cc1565b80156106da576000828152600160205260409020600601546106505760005460405160e060020a6370a0823102815261063991600160a060020a0316906370a0823190610382903390600401610c59565b600083815260016020526040902060030155610681565b60008281526001602081905260409091206003015461066e91610912565b6000838152600160205260409020600301555b6000828152600160208181526040808420338086526007909101909252909220805460ff191682179055600080516020610de6833981519152919084905b6040516106ce93929190610c86565b60405180910390a15050565b60008281526001602052604090206006015461073c5760005460405160e060020a6370a0823102815261072591600160a060020a0316906370a082319061047a903390600401610c59565b60008381526001602052604090206004015561076d565b60008281526001602081905260409091206004015461075a91610912565b6000838152600160205260409020600401555b6000828152600160209081526040808320338085526007909101909252909120805460ff19166002908117909155600080516020610de6833981519152919084906106bf565b60006001600260008282546107c89190610d1d565b91829055506000818152600160209081526040909120885192945092506107f3918391890190610925565b506001810185905560028101849055600060038201819055600480830182905590546040805160e060020a6318160ddd0281529051600160a060020a03909216926318160ddd9282820192602092908290030181865afa15801561085b573d6000803e3d6000fd5b505050506040513d601f19601f8201168201806040525081019061087f9190610c6d565b6005820155600183141561090457600080546040805160e060020a639ff9bc890281529051600160a060020a0390921692639ff9bc89926004808401938290030181865afa1580156108d5573d6000803e3d6000fd5b505050506040513d6000823e601f3d908101601f191682016040526108fd9190810190610d35565b5160058201555b600601919091559392505050565b600061091e8284610d1d565b9392505050565b82805461093190610c00565b90600052602060002090601f0160209004810192826109535760008555610999565b82601f1061096c57805160ff1916838001178555610999565b82800160010185558215610999579182015b8281111561099957825182559160200191906001019061097e565b506109a59291506109a9565b5090565b5b808211156109a557600081556001016109aa565b600160a060020a03811681146109d357600080fd5b50565b600080604083850312156109e957600080fd5b82356109f4816109be565b946020939093013593505050565b60c08152600087518060c084015260005b81811015610a30576020818b0181015160e0868401015201610a13565b81811115610a4257600060e083860101525b5060208301979097525060408101949094526060840192909252608083015260a082015260e0601f909201601f19160101919050565b60e060020a634e487b710260009081526041600452602490fd5b604051601f8201601f191681016001604060020a0381118282101715610aba57610aba610a78565b604052919050565b60008060008060808587031215610ad857600080fd5b84356001604060020a0380821115610aef57600080fd5b818701915087601f830112610b0357600080fd5b8135602082821115610b1757610b17610a78565b610b29601f8301601f19168201610a92565b92508183528981838601011115610b3f57600080fd5b8181850182850137600091830181019190915290989087013597506040870135966060013595509350505050565b803580151581146105bf57600080fd5b600080600060608486031215610b9257600080fd5b8335610b9d816109be565b925060208401359150610bb260408501610b6d565b90509250925092565b600060208284031215610bcd57600080fd5b5035919050565b60008060408385031215610be757600080fd5b82359150610bf760208401610b6d565b90509250929050565b600281046001821680610c1457607f821691505b60208210811415610c395760e060020a634e487b710260009081526022600452602490fd5b50919050565b60e060020a634e487b710260009081526021600452602490fd5b600160a060020a0391909116815260200190565b600060208284031215610c7f57600080fd5b5051919050565b600160a060020a039390931683526020830191909152604082015260600190565b60e060020a634e487b710260009081526011600452602490fd5b6000816000190483118215151615610cdb57610cdb610ca7565b500290565b600082610d015760e060020a634e487b710260009081526012600452602490fd5b500490565b600082821015610d1857610d18610ca7565b500390565b60008219821115610d3057610d30610ca7565b500190565b60006020808385031215610d4857600080fd5b82516001604060020a0380821115610d5f57600080fd5b818501915085601f830112610d7357600080fd5b815181811115610d8557610d85610a78565b8381029150610d95848301610a92565b8181529183018401918481019088841115610daf57600080fd5b938501935b83851015610dd95784519250610dc9836109be565b8282529385019390850190610db4565b9897505050505050505056fea1c1b9cdc2aad9661d1ffcabab0d910074d89a8e159d8858bdaab9cf81164ba6a26469706673582212207c93f36564a0539fbd6f1cd3ba9bb9025a29375619037f79de212e20ea9db4de64736f6c634300080a0033",
  "immutableReferences": {},
  "source": "// SPDX-License-Identifier: MIT\npragma solidity >=0.4.22 <0.9.0;\nimport \"./Token.sol\";\nimport \"@openzeppelin/contracts/utils/math/SafeMath.sol\";\n\ncontract Voting{\n    using SafeMath for uint256;\n    Token token;\n    \n    \n    constructor(Token tok){\n        token = tok;\n    }\n\n    enum VoterState{ absent, yes, no }\n    event Voter_Status(address voter, uint256 voteId, uint256 status);\n    // TODO: how to run script\n    struct Vote{\n        string content;\n        uint256 endDate;\n        uint256 approvalPct;\n        uint256 yes_voted;\n        uint256 no_voted;\n        uint256 voting_base;\n        uint256 vote_method;\n        mapping(address => VoterState) voters;\n    }\n\n    mapping (uint256 => Vote) internal votes;\n    uint256 public votes_length;\n    \n    function create_vote(string memory content, uint256 endDate, uint256 approvalPct, uint256 vote_method) public returns(uint256){\n        return newVote(content, endDate, approvalPct, vote_method);\n    }\n\n    function newVote(string memory content, uint256 endDate, uint256 approvalPct, uint256 vote_method) internal returns(uint256 voteId){\n        voteId = votes_length += 1;\n        Vote storage vote = votes[voteId];\n        vote.content = content;\n        vote.endDate = endDate;\n        vote.approvalPct = approvalPct;\n        vote.yes_voted = 0;\n        vote.no_voted = 0;\n        vote.voting_base = token.totalSupply();\n        if(vote_method == 1){\n            vote.voting_base = token._get_holder().length;\n        }\n        vote.vote_method =vote_method;\n    }\n\n    function take_vote(uint256 voteId, bool support) public {\n        if(support){\n            if(votes[voteId].vote_method == 0){\n                votes[voteId].yes_voted = votes[voteId].yes_voted.add(token.balanceOf(msg.sender));\n            } else {\n                votes[voteId].yes_voted = votes[voteId].yes_voted.add(1);\n            }\n            votes[voteId].voters[msg.sender] = VoterState.yes;\n            emit Voter_Status(msg.sender, voteId, uint(votes[voteId].voters[msg.sender]));\n        }\n        else{\n            if(votes[voteId].vote_method == 0){\n                votes[voteId].no_voted = votes[voteId].no_voted.add(token.balanceOf(msg.sender));\n            } else {\n                votes[voteId].no_voted = votes[voteId].no_voted.add(1);\n            }\n            votes[voteId].voters[msg.sender] = VoterState.no;\n            emit Voter_Status(msg.sender, voteId, uint(votes[voteId].voters[msg.sender]));\n        }\n    }\n\n    function withdraw_vote(address voter, uint256 voteId, bool support) public {\n        if(support){\n            votes[voteId].yes_voted = votes[voteId].yes_voted.add(token.balanceOf(voter));\n            votes[voteId].voters[voter] = VoterState.yes;\n            emit Voter_Status(voter, voteId, uint(votes[voteId].voters[voter]));\n        }\n        else{\n            votes[voteId].no_voted = votes[voteId].no_voted.add(token.balanceOf(voter));\n            votes[voteId].voters[voter] = VoterState.no;\n            emit Voter_Status(voter, voteId, uint(votes[voteId].voters[voter]));\n        }\n    }     \n\n    //retrive data\n    // function get_vote_content(uint256 voteId) public view returns(string memory){\n    //     return votes[voteId].content;\n    // }\n\n    function vote_is_open(uint256 voteId) public view returns(bool) {\n        return (votes[voteId].endDate > block.timestamp);\n    }\n\n    function vote_yes_progress(uint256 voteId) public view returns(uint256){\n        return uint256(votes[voteId].yes_voted*100/votes[voteId].voting_base);\n    }\n\n    function vote_no_progress(uint256 voteId) public view returns(uint256){\n        return uint256(votes[voteId].no_voted*100/votes[voteId].voting_base);\n    }\n\n    function vote_is_apporved(uint256 voteId) public view returns(uint256){\n        if(vote_yes_progress(voteId)>=votes[voteId].approvalPct){\n            return 1;\n        } else if(vote_no_progress(voteId)>(100-votes[voteId].approvalPct)){\n            return 0;\n        }\n        else{\n            return 2;\n        }\n    }\n\n\n    function time() public view returns(uint256){\n        return block.timestamp;\n    }\n\n    //[content, endDate, approvalPct, yes_voted_Pct, no_voted_Pct, voter_state, ]\n    function get_votings(address voter, uint256 voteId) public view returns(string memory, uint256, uint256, uint256, uint256, uint){\n        string memory content = votes[voteId].content;\n        uint256 endDate = votes[voteId].endDate;\n        uint256 approvalPct = votes[voteId].approvalPct;\n        uint256 yes_voted_Pct = uint(vote_yes_progress(voteId));\n        uint256 no_voted_Pct = uint(vote_no_progress(voteId));\n        uint voter_state = uint(votes[voteId].voters[voter]);\n\n        return (content, endDate, approvalPct, yes_voted_Pct, no_voted_Pct, voter_state);\n    }\n\n    function get_votings2(uint256 voteId) public view returns(uint256, uint256, uint256){\n        uint256 yes_voted_Num = votes[voteId].yes_voted; \n        uint256 no_voted_Num = votes[voteId].no_voted;\n        uint256 voteMethod = votes[voteId].vote_method;\n        return (yes_voted_Num, no_voted_Num, voteMethod);\n    }\n}",
  "sourcePath": "/Users/shiqianghan/Desktop/CS310 Project DAO/code/truffle/contracts/Voting.sol",
  "compiler": {
    "name": "solc",
    "version": "0.8.10+commit.fc410830.Emscripten.clang"
  },
  "schemaVersion": "3.4.4",
  "updatedAt": "2022-03-13T12:45:55.824Z",
  "devdoc": {
    "kind": "dev",
    "methods": {},
    "version": 1
  },
  "userdoc": {
    "kind": "user",
    "methods": {},
    "version": 1
  }
}